:100000000C943E010C946F010C946F010C946F01E1
:100010000C946F010C946F010C946F010C946F01A0
:100020000C946F010C946F010C946F010C946F0190
:100030000C946F010C946F010C946F010C946F0180
:100040000C946F010C946F010C946F010C946F0170
:100050000C946F010C946F010C946F010C94B61208
:100060000C946F010C942A130C9400130C946F01E0
:100070000C946F010C946F010C946F010C946F0140
:100080000C946F010C946F010C946F010C946F0130
:100090000C946F010C946F010C946F010C946F0120
:1000A0000C946F010C946F010C946F010C946F0110
:1000B0000C946F010C946F010C946F010C946F0100
:1000C0000C946F010C946F010C946F010C946F01F0
:1000D0000C946F010C946F010C946F010C946F01E0
:1000E0000C946F010C943B0A0C94CA010C94990176
:1000F0000C942C040C94C9030C9464040C94D0014B
:100100000C9460130C94B8010C94D8030C94AA01BD
:100110000C9495010C94C6010C94CF010C94620BC5
:100120000C949D010C94D4010C948F010C94B40197
:100130000C94AE010C94A4010C94BF150C941E12E7
:100140000C941E040C94A1010C9493030C94BC0118
:100150000C94B1040C94C20100002100240027007B
:100160002A002D00300033000101000004010701C6
:100170000A0100002200250028002B002E0031007B
:10018000340002010000050108010B0100002000FD
:100190002300260029002C002F003200000100005F
:1001A00003010601090105050505070508080808FA
:1001B000020202020A0A08080404040401010101FF
:1001C00001010101030303030303030304070707FA
:1001D0000C0C0C0C0C0C0C0C02020202060606069F
:1001E000060606060B0B0B0B0B0B0B0B010210206C
:1001F000200808102040102040800201020108045D
:1002000002010102040810204080804020100804F0
:100210000201800402018040201008040201080449
:10022000020101020408102040800102040810208D
:10023000408000000A0B02090C0D0E0807030401A0
:1002400000000000000000000000000000000000AE
:10025000000000000000000000000000000012117B
:10026000100000000000000000000000000000007E
:1002700000000000000000006013BF1511241FBE25
:10028000CFEFD1E2DEBFCDBF00E00CBF28E0A4E19C
:10029000B4E001C01D92AA30B207E1F714E0A0E07B
:1002A000B2E0E0E1F3E300E00BBF02C007900D9283
:1002B000A431B107D9F711E0CDE3D1E000E006C0E9
:1002C00021970109802FFE010E940617CC33D10728
:1002D00080E00807A9F70E94DE130C9476190C94AD
:1002E00000008150823108F05AC0E82FF0E08827E2
:1002F000E358FE4F8F4F0C9406179D01A1018F010B
:1003000095019901CF01A401AA01AE01B401B80180
:10031000BC01C201C601CF01CA01D001D401809144
:1003200080008F77809380000895809180008F7D7A
:10033000F9CF80918000877FF5CF84B58F7784BD1A
:10034000089584B58F7DFBCF8091B0008F77809327
:10035000B00008958091B0008F7DF9CF809190001A
:100360008F77809390000895809190008F7DF9CFD2
:1003700080919000877FF5CF8091A0008F77809348
:10038000A00008958091A0008F7DF9CF8091A000FA
:10039000877FF5CF809120018F778093200108958A
:1003A000809120018F7DF9CF80912001877FF5CF4B
:1003B000CF93DF93282F30E0F901EE5CFD4F84915D
:1003C000F901E451FE4FD491F901EA55FE4FC49171
:1003D000CC23A1F081110E947101EC2FF0E0EE0F0F
:1003E000FF1FE457FE4FA591B491EC91ED2381E0FE
:1003F00090E009F480E0DF91CF91089580E090E0F3
:10040000FACF1F93CF93DF93282F30E0F901EE5CF2
:10041000FD4F8491F901E451FE4FD491F901EA5561
:10042000FE4FC491CC23A9F0162F81110E947101B7
:10043000EC2FF0E0EE0FFF1FEE58FE4FA591B491A8
:100440008FB7F894EC91111108C0D095DE23DC939E
:100450008FBFDF91CF911F910895DE2BF8CFCF93FF
:10046000DF9390E0FC01E451FE4F24918A559E4FAA
:10047000FC0184918823C9F090E0880F991FFC014A
:10048000E85AFE4FA591B491FC01EE58FE4FC5917C
:10049000D49161110DC09FB7F8948C91209582235F
:1004A0008C938881282328839FBFDF91CF91089563
:1004B000623051F49FB7F8943C91822F809583234A
:1004C0008C93E8812E2BEFCF8FB7F894EC912E2BE5
:1004D0002C938FBFEACF863308F0865320917B00A0
:1004E000982F9870277F922B90937B008770806461
:1004F00080937C0080917A00806480937A00809160
:100500007A0086FDFCCF8091780090917900089563
:100510003FB7F8948091450590914605A091470515
:10052000B091480526B5A89B05C02F3F19F001964C
:10053000A11DB11D3FBFBA2FA92F982F8827BC013D
:10054000CD01620F711D811D911D42E0660F771F65
:10055000881F991F4A95D1F708958F929F92AF9265
:10056000BF92CF92DF92EF92FF926B017C010E94CB
:1005700088024B015C01C114D104E104F104B9F01B
:100580000E948802681979098A099B09683E7340AC
:100590008105910580F321E0C21AD108E108F10834
:1005A00088EE880E83E0981EA11CB11CE4CFFF905A
:1005B000EF90DF90CF90BF90AF909F908F90089575
:1005C0002FB7F894609141057091420580914305E1
:1005D000909144052FBF0895CF93DF93209190060B
:1005E000309191062A30310564F4EEE0F6E0D0E077
:1005F000C0E021913191232B51F02196CA30D105D1
:10060000C1F7CFEFDFEFCE01DF91CF910895FE016B
:10061000EE0FFF1FEE0FFF1FEE5DF94F608371833A
:1006200082839383FE01EE0FFF1FE25FF94F518338
:100630004083FE01EE0FFF1FE65BF94F118210822F
:1006400081E0FE01EE58F94F80830E94E002FE0136
:10065000EE0FFF1FEE0FFF1FEA51FA4F6083718309
:100660008283938380919006909191060196909356
:10067000910680939006C7CFCF93DF938091900629
:10068000909191060A9764F4EEE0F6E0D0E0C0E0C5
:1006900081919191892B51F02196CA30D105C1F7F2
:1006A000CFEFDFEFCE01DF91CF910895FE01EE0F86
:1006B000FF1FEE0FFF1FEE5DF94F84E690E0A0E014
:1006C000B0E080839183A283B383FE01EE0FFF1F0E
:1006D000E25FF94F8EE192E191838083FE01EE0F9C
:1006E000FF1FE65BF94F81E090E091838083FE017C
:1006F000EE58F94F80830E94E002FE01EE0FFF1FCB
:10070000EE0FFF1FEA51FA4F608371838283938358
:100710008091900690919106019690939106809316
:100720009006C0CF0895AF92BF92CF92DF92EF9222
:10073000FF920F931F93CF93DF936C017B018B018B
:10074000040F151FEB015E01AE18BF08C017D107DB
:1007500059F06991D601ED91FC910190F081E02D65
:10076000C6011995892B79F7C501DF91CF911F91AA
:100770000F91FF90EF90DF90CF90BF90AF900895D2
:10078000FC01448155816081718189E495E00C947C
:100790009303FC01538D448D252F30E0842F90E08E
:1007A000821B930B541710F0CF960895019708956C
:1007B000FC01918D828D981761F0A28DAE0FBF2F35
:1007C000B11D5D968C91928D9F5F9F73928F90E08B
:1007D00008958FEF9FEF08950F931F930E94E002FB
:1007E000609351057093520580935305909354057F
:1007F00089E495E00E94D80397FF1DC00E94E002A3
:1008000000915105109152052091530530915405E6
:10081000601B710B820B930B00914D0510914E05DF
:1008200020914F053091500560177107820793079B
:10083000F8F28FEF9FEF1F910F910895FC01918DBA
:10084000828D981731F0828DE80FF11D858D90E033
:1008500008958FEF9FEF0895FC01918D228D892FD0
:1008600090E0805C9F4F821B91098F7399270895B8
:1008700089E495E00E942C0421E0892B09F420E012
:10088000822F0895FC01A48DA80FB92FB11DA35A82
:10089000BF4F2C91848D90E001968F739927848FA0
:1008A000A689B7892C93A089B1898C9183708064C3
:1008B0008C93938D848D981306C00288F389E02D64
:1008C00080818F7D80830895EF92FF920F931F9315
:1008D000CF93DF93EC0181E0888F9B8D8C8D9813F3
:1008E0001AC0E889F989808185FF15C09FB7F894FF
:1008F000EE89FF896083E889F9898081837080644B
:1009000080839FBF81E090E0DF91CF911F910F9195
:10091000FF90EF900895F62E0B8D10E00F5F1F4FA4
:100920000F731127E02E8C8D8E110CC00FB607FCB3
:10093000FACFE889F989808185FFF5CFCE010E9441
:100940004204F1CFEB8DEC0FFD2FF11DE35AFF4F69
:10095000F0829FB7F8940B8FEA89FB8980818062CF
:10096000CFCFCF93DF93EC01888D8823B9F0AA898C
:10097000BB89E889F9898C9185FD03C0808186FD5A
:100980000DC00FB607FCF7CF8C9185FFF2CF8081A9
:1009900085FFEDCFCE010E944204E9CFDF91CF91D8
:1009A000089580E090E0892B29F00E94380481119D
:1009B0000E94000080E090E0892B49F080E090E008
:1009C000892B29F00E94000081110E94000080E024
:1009D00090E0892B49F080E090E0892B29F00E947B
:1009E000000081110E94000080E090E0892B49F016
:1009F00080E090E0892B29F00E94000081110C9486
:100A0000000008950F931F93CF93DF93282F88E161
:100A1000289FE001112442E050E060E070E0CB014B
:100A2000A0E030E0FA01EE0FFF1FEC0FFD1FE05ECB
:100A3000FB4F0190F081E02D3097D1F5AF5F4F5F14
:100A40005F4F4C30510571F76115710581059105B6
:100A500051F148E1429F8001439F100D1124005E37
:100A60001B4F2AE030E02A1B3109032E000C440BF7
:100A7000550B0E94E416CA01B9010E9468160E9433
:100A80000E17F8017183608382E090E0FC01EE0FA5
:100A9000FF1FEC0FFD1FE05EFB4F118210820196DD
:100AA0008C30910599F7DF91CF911F910F910895A7
:100AB0006E0F7F1F811D911DC2CF0895FC018081A3
:100AC0009181009711F00C94D51560E070E0CB0196
:100AD0000895CF93DF93FC0124813581421753079A
:100AE00088F4C081D181FB0160817181CE01840FC6
:100AF000951F0E945C19009729F08C1B9D0BDF91BC
:100B0000CF9108958FEF9FEFFACF50E040E00C9423
:100B10006905FC0124813581232B39F421E0FB0197
:100B20008081882349F020E007C0808191810E9464
:100B30004C1921E0892BB9F7822F0895CF92DF92CB
:100B4000EF92FF920F931F93CF93DF93F82ED0E095
:100B5000C0E0C82ED12C86E0E82E8C2F8F0D8C3370
:100B6000D8F486010C0F1D1FE09EC001E19E900D80
:100B7000112467EF73E08E56994F0E9489052196E4
:100B80008111EBCFC801DF91CF911F910F91FF90A1
:100B9000EF90DF90CF9008950FEF1FEFF3CFCF923C
:100BA000DF92EF92FF920F931F93CF93DF93F82E74
:100BB000D0E0C0E0C82ED12C86E0E82E8C2F8F0D1F
:100BC0008C33D8F486010C0F1D1FE09EC001E19EFE
:100BD000900D112467EF73E08E56994F0E9489059E
:100BE0002196882359F3C801DF91CF911F910F916E
:100BF000FF90EF90DF90CF9008950FEF1FEFF3CFAE
:100C00000F931F93CF93DF938C01EB01FC01808145
:100C100091810097E1F06881798161157105A9F0F2
:100C2000428153812C813D814217530770F00E940D
:100C300055198C819D81F801958384831D821C82C6
:100C4000DF91CF911F910F9108950E94D91788814C
:100C50009981F801918380838A819B819383828328
:100C60008C819D8195838483198218821B821A82CC
:100C7000E5CFCF93DF93EC0188819981009711F044
:100C80000E94D917198218821D821C821B821A8227
:100C9000DF91CF910895FC0180819181009711F03F
:100CA0000C94D91708950F931F93CF93DF93EC0102
:100CB00088819981009759F02A813B81261737074F
:100CC00030F081E0DF91CF911F910F9108958B015A
:100CD0006F5F7F4F0E946218009759F09983888355
:100CE0001B830A832C813D81232B59F7FC01108241
:100CF000E8CF80E0E7CFEF92FF920F931F93CF935F
:100D0000DF936115710541F480E0DF91CF911F9170
:100D10000F91FF90EF90089541155105B1F07B01BF
:100D2000EC010C811D81040F151FB8010E945306B0
:100D3000882351F3288139818C819D81B701820FED
:100D4000931F0E9455191D830C8381E0DECFCF9342
:100D5000DF93EC01FB0101900020E9F73197AF012F
:100D6000461B570B0E947B06811103C0CE010E94D7
:100D70003906CE01DF91CF910895CF93DF93EC0137
:100D8000FB0144815581608171810E947B06811144
:100D900003C0CE010E943906CE01DF91CF910895A4
:100DA000EF92FF920F931F93CF93DF93EC017B01A0
:100DB0008A01BA010E94530681110BC0CE010E9424
:100DC0003906CE01DF91CF911F910F91FF90EF90E7
:100DD00008951D830C83B701888199810E9455195C
:100DE000F0CFFB0101900020E9F73197AF01461BDE
:100DF000570B0C94D0060F931F93CF93DF93CDB76F
:100E0000DEB762970FB6F894DEBF0FBECDBF8C0180
:100E1000CB01F80111821082138212821582148292
:100E20004AE0BE016F5F7F4F0E94FC15BE016F5FFD
:100E30007F4FC8010E94F10662960FB6F894DEBF9C
:100E40000FBECDBFDF91CF911F910F9108950F93EA
:100E50001F93CF93DF9300D000D000D0CDB7DEB783
:100E60008C01862FF8011182108213821282158262
:100E700014824AE0BE016F5F7F4F90E00E943E16F1
:100E8000BE016F5F7F4FC8010E94F10629960FB621
:100E9000F894DEBF0FBECDBFDF91CF911F910F91B0
:100EA00008950F931F93CF93DF93CDB7DEB761976C
:100EB0000FB6F894DEBF0FBECDBF8C01CB01F80199
:100EC0001182108213821282158214824AE0BE01BE
:100ED0006F5F7F4F0E943E16BE016F5F7F4FC8015C
:100EE0000E94F10661960FB6F894DEBF0FBECDBF2B
:100EF000DF91CF911F910F910895CF93DF93EC0174
:100F0000FB018617970749F06081718161157105B2
:100F100041F0448155810E94D006CE01DF91CF91EE
:100F200008950E943906F9CFFC01118210821382C4
:100F30001282158214820C947D07FC0111821082AA
:100F40001382128215821482FB0101900020E9F7BE
:100F50003197AF01461B570B0C94D006AF92BF924E
:100F6000CF92DF92EF92FF920F931F93CF93DF9375
:100F70006C015B017A0189012417350720F48F2D5C
:100F80007901042F182F67EF73E0C6010E949D07B7
:100F9000D5011496CD91DC91EC16FD06E0F40C170A
:100FA0001D0708F4E801D501ED91FC911197EC0FB4
:100FB000FD1F108110826D917C916E0D7F1DC60109
:100FC00061157105A1F00E94F106F5018081918102
:100FD000C80FD91F1883C601DF91CF911F910F91C0
:100FE000FF90EF90DF90CF90BF90AF9008950E9458
:100FF0003906EBCF2F923F924F925F926F927F9282
:101000008F929F92AF92BF92CF92DF92EF92FF9218
:101010000F931F93CF93DF93CDB7DEB7AC970FB687
:10102000F894DEBF0FBECDBF5C011B014A013CA797
:101030002BA767EF73E0C8010E948905811146C0A4
:101040006BA57CA5C5010E9485053C01B801C501C1
:101050000E9485052C01D12CF12C641475040CF030
:10106000F5C077FCF3C09601240D351DA701460D90
:10107000571DB501CE0101960E94AE07D4018C9197
:10108000BE016F5F7F4FF10126E0829FE00DF11DF1
:101090001124CF010E940006CE0101960E944B064A
:1010A000D4018C918F5F8C93A3014F5F5F4F6BA531
:1010B0007CA5C5010E9469053C01A2014F5F5F4FFD
:1010C000B801C5010E9469052C01C7CF1A82198297
:1010D00064ED72E0CE0149960E949D07BE01675EF5
:1010E0007F4FC5010E9485058C01CE0149960E9463
:1010F0004B06FF24F39417FD63C066EE72E0CE0149
:1011000085960E949D07BE016B5D7F4FC5010E94C1
:101110008505EE24E394019659F166EE72E0CE0166
:101120004F960E949D07BE01615E7F4FC5010E94E0
:101130008505EE24E39408171907B4F06BE573E016
:10114000CE0149960E949D07A801BE01675E7F4FB0
:10115000C5010E946905EE24E394019609F0E12C93
:10116000CE0149960E944B06CE014F960E944B0637
:10117000CE0185960E944B06EE2069F0EF2DF0E03F
:10118000EE0FFF1F21E030E02C0F3D1FE20FF31F99
:1011900011830083F3940F5F1F4F64ED72E0CE0163
:1011A00049960E949D07A801BE01675E7F4FC50159
:1011B0000E9469058C01CE0149960E944B069BCF87
:1011C000EF2DF0E0EE0FFF1F81E090E08C0F9D1FF0
:1011D000E80FF91FD50114968D919C91918380831E
:1011E0008E010F5F1F4FE12C96E0D92EFE1471F196
:1011F000E11022C02B813C8149815A81B501CE0189
:1012000049960E94AE07F4018081BE01675E7F4F60
:1012100091018D9D200D311D1124C9010E940006F0
:10122000CE0149960E944B06D4018C918F5F8C931E
:10123000E3940E5F1F4FDACFD80112962D913C91A7
:1012400013974D915C914F5F5F4FD8CFAC960FB61F
:10125000F894DEBF0FBECDBFDF91CF911F910F91EC
:10126000FF90EF90DF90CF90BF90AF909F908F90C6
:101270007F906F905F904F903F902F900895DF92F6
:10128000EF92FF920F931F93CF93DF93CDB7DEB70B
:101290006E970FB6F894DEBF0FBECDBFD62E082FC7
:1012A00010E098E1899FF0011124E05EFB4FE0809F
:1012B000F18067EF73E0CE0143960E949D07F8012D
:1012C000EA5FFD4F1081D1107CC086E08E9DB00199
:1012D0008F9D700D11246650784FCE0143960E9469
:1012E0007D07612FCE010D960E94270762E672E00E
:1012F000CE0107960E949D076AE672E0CE01019634
:101300000E949D07BE01695F7F4FCE0101960E943A
:10131000BD0664ED72E00E94A706BE01635F7F4FC9
:101320000E94BD0664ED72E00E94A706BE016D5EDC
:101330007F4F0E94BD066CE672E00E94A706BC01CA
:10134000CE0149960E949407CE0101960E944B0659
:10135000CE0107960E944B06CE010D960E944B06C9
:1013600080E00E94CF0597FD5DC046E0489F900158
:10137000499F300D1124BE01675E7F4FC9018E5613
:10138000994F0E947D078091900690919106039756
:1013900014F40E943C03CE0149960E944B06CE01F4
:1013A00043960E944B066E960FB6F894DEBF0FBEB2
:1013B000CDBFDF91CF911F910F91FF90EF90DF9004
:1013C000089564E572E0CE0101960E949D07CE016A
:1013D00001960E944B06812F0E946B02BC01CE0138
:1013E00001960E94FB06CE0101960E944B066EE517
:1013F00072E0CE0101960E949D07CE0101960E94E7
:101400004B06B701CE0101960E945107BE016F5FE6
:101410007F4FCE0143960E940006CE0101960E94A6
:101420004B065FCF6FE672E0CE0101960E949D07EA
:10143000CE0101960E944B066CE972E0CE01019646
:101440000E949D07BE01675E7F4FCE0101960E94FC
:10145000BD0663EE73E00E94A706BC01CE010796AD
:101460000E949407CE0107960E944B06CE0101967A
:101470000E944B0690CF9F92AF92BF92CF92DF9285
:10148000EF92FF920F931F93CF93DF93CDB7DEB709
:1014900062970FB6F894DEBF0FBECDBF84E1A82ED1
:1014A00084E0B82E00E214E0F12CE12C9E2CF50132
:1014B00081915F01813009F077C08E2D0E94020575
:1014C000F701EA5FFD4F80810E946B026C0164E5C9
:1014D00072E0CE0101960E949D07CE0101960E9406
:1014E0004B06B601CE0101960E94FB06CE01019685
:1014F0000E944B0663EA72E0CE0101960E949D07AE
:10150000CE0101960E944B06F80160817181CE01E7
:1015100001960E945107CE0101960E944B06F801E8
:10152000C280D38080819181C816D90609F458C041
:10153000C81AD90A6EEA72E0CE0101960E949D0790
:10154000CE0101960E944B06B601CE0101960E9483
:101550005107BE016F5F7F4FCE0107960E9494072F
:1015600063EE73E0CE0107960E94A706BC01CE0190
:101570000D960E949407CE010D960E944B06CE0157
:1015800007960E944B06CE0101960E944B06F9E099
:10159000CF16D10448F0F801808191819383828332
:1015A00061E0892D0E943F09FFEFEF1AFF0A085EF4
:1015B0001F4F8CE0E816F10409F078CF62960FB661
:1015C000F894DEBF0FBECDBFDF91CF911F910F9179
:1015D000FF90EF90DF90CF90BF90AF909F900895D5
:1015E000D12CC12CA7CF7F928F929F92AF92BF92A6
:1015F000CF92DF92EF92FF920F931F93CF93DF93DF
:10160000782E36E0C32E32E0D32E44E1A42E44E0FF
:10161000B42EC0E2D4E010E0F60101916F01F501B3
:1016200081915F01811125C0802F0E94D8012881FE
:1016300039818217930759F0802F0E94D80199832E
:101640008883772021F060E0812F0E943F091F5F8F
:1016500068961C3009F7DF91CF911F910F91FF9091
:10166000EF90DF90CF90BF90AF909F908F907F9042
:101670000895813061F722E0822E912C80E0740180
:10168000EE0CFF1CEC0EFD1EF70120813181232B97
:1016900039F4802F0E946B02F7019183808381E0EF
:1016A000FFEF8F1A9F0A9CE08916910441F7811180
:1016B000CECF812F0E940205802F0E946B029D8356
:1016C0008C83C5CF81E00C94F30A0F931F93CF93C3
:1016D00080E00E94F30A04E114E0C0E0F801819187
:1016E0008F0160E0813021F48C2F0E94020561E0BF
:1016F0008C2F0E943F09CF5FCC3081F7CF911F9193
:101700000F910895CF93DF93CDB7DEB72C970FB627
:10171000F894DEBF0FBECDBF67EB72E0CE01079637
:101720000E949D0769EB72E0CE0101960E949D0721
:10173000BE01695F7F4FCE0101960E94BD066CE637
:1017400072E00E94A7060E94C003CE0101960E948B
:101750004B06CE0107960E944B062C960FB6F894C6
:10176000DEBF0FBECDBFDF91CF910895CF93DF9342
:10177000CDB7DEB762970FB6F894DEBF0FBECDBF10
:10178000BC01CE0107960E94FB0666ED72E0CE0119
:1017900001960E949D07BE01695F7F4FCE010196B1
:1017A0000E94BD0668EE72E00E94A706BC01CE0151
:1017B0000D960E949407CE010D960E944B06CE0115
:1017C00001960E944B06CE0107960E944B060E948E
:1017D000820B62960FB6F894DEBF0FBECDBFDF91CD
:1017E000CF910895AF92BF92CF92DF92EF92FF9286
:1017F0001F93CF93DF93CDB7DEB762970FB6F89400
:10180000DEBF0FBECDBF6BEE72E0CE0101960E942F
:101810009D07CE0101960E944B0686E0A82E82E02D
:10182000B82E94E1C92E94E0D92EF12CE12CC701F9
:101830000E94CE16F50111915F01813009F048C078
:10184000F601808360E0812F0E942F02612FCE017C
:1018500007960E94270765EF72E0CE0101960E946D
:101860009D07BE01695F7F4FCE0101960E94BD06B4
:101870006DEF72E00E94A706BC01CE010D960E949A
:101880009407CE010D960E944B06CE0101960E9450
:101890004B06CE0107960E944B06FFEFEF1AFF0A98
:1018A0008FEFC81AD80AECE0EE16F10409F0BFCFAA
:1018B00062960FB6F894DEBF0FBECDBFDF91CF9119
:1018C0001F91FF90EF90DF90CF90BF90AF90089561
:1018D00081111BC0F601108262E0812F0E942F024D
:1018E000612FCE0107960E94270765EF72E0CE01B7
:1018F00001960E949D07BE01695F7F4FCE01019650
:101900000E94BD0668E073E0B5CF60E0C7010E94A9
:10191000D61668EC70E080E090E00E94AD02DACF6D
:101920002F923F924F925F926F927F928F929F92EF
:10193000AF92BF92CF92DF92EF92FF920F931F93DD
:10194000CF93DF93CDB7DEB7C85ED7400FB6F8941C
:10195000DEBF0FBECDBF67EF73E0CE018B52984F55
:101960000E949D070E94EC0397FD10C08A309105EC
:1019700069F089831A8241E050E0BE016F5F7F4FBA
:10198000CE018B52984F0E947B06ECCF8E010F56F2
:10199000194F2E0123E4421A28EF520AC052D84FA1
:1019A00019830883C05ED74067EF73E0C8010E94C7
:1019B0009D070A5F1F4F04151505B1F7C152D84F97
:1019C0001882CF5DD74064E173E0CE0101960E949A
:1019D0009D076AE672E0CE018F519E4F0E949D07DF
:1019E000C12CEE24E3948E010F5F1F4F9E012F51F7
:1019F0003E4FAE014152584FBE016F56794FCE0156
:101A00008B52984F0E94FA07CE018F519E4F0E9431
:101A10004B06C8010E944B06C152D84F8881CF5D4A
:101A2000D74081111FC0BE016B52784FCE018F513C
:101A30009E4F0E94940763EE73E0CE018F519E4F3C
:101A40000E94A706BC01C8010E949407C8010E9419
:101A50004B06CE018F519E4F0E944B068EEF9FEF9B
:101A60000E94B60BC851D84F1882C85ED7401E01DD
:101A70008FE1281A8EEF380A3E019BE9691A9AEF26
:101A8000790A5E01E3EFAE1AECEFBE0AC3010696D7
:101A9000CC51D84F99838883C45ED740FE01E75C60
:101AA000FB4FCE51D84FF983E883C25ED740C15275
:101AB000D84F8881CF5DD740C851D84FF881C85ED4
:101AC000D740F81708F03BC441E9842E46E0942E35
:101AD0008C0E9D1E26E0F29F800C911C11246CE957
:101AE00072E0C1010E949D07B401C1010E94BD06C0
:101AF00063EE73E00E94A706BC01CE0101960E942E
:101B00009407CE0101960E944B06C1010E944B062C
:101B10008E010B591A4F7E019FE6E91A99EFF90AD7
:101B200067EF73E0C8010E949D070A5F1F4FE01630
:101B3000F106B1F7C252D84F1882CE5DD74067EF99
:101B400073E0CE0101960E949D0767EF73E0C1012B
:101B50000E949D07C12CE12C8E010F5F1F4F910148
:101B6000AE014252584FB301C4010E94FA07C101AD
:101B70000E944B06C8010E944B06C252D84F888172
:101B8000CE5DD740833009F088C066E173E0C301C1
:101B90000E9489058823E1F0CC51D84F8881998132
:101BA000C45ED7400E945E05E6E0F2E010E000E08F
:101BB0002191C22ED12CF12CE12CC616D706E806B5
:101BC000F90609F4EAC30F5F1F4F0C30110581F7C6
:101BD00060EC73E0CE0101960E949D07CE01019654
:101BE0000E944B068E010F56194F06501109C8016D
:101BF0000E944B0606151705C1F7C851D84F9881AA
:101C0000C85ED7409F5FC851D84F9883C85ED74001
:101C10004ECF61E0C8010E94D61667E373E0CE01A3
:101C200001960E949D07CE0101960E944B0664EF2B
:101C300071E080E090E00E94AD0268E473E0CE01C4
:101C400001960E949D07CE0101960E944B0640E23C
:101C500054E02CE090E080E0FC01EE0FFF1FE40F69
:101C6000F51F1182108201968C309105A9F7215041
:101C7000485E5F4F2111EECF0E94F20B0AC066E270
:101C800073E0CE0101960E949D07CE0101960E944D
:101C90004B06C1010E944B069BCF823009F032C334
:101CA00062E573E0C1010E949D07B301C1010E947A
:101CB000BD0663EE73E00E94A706BC01CE0101964B
:101CC0000E949407CE0101960E944B06C1010E941A
:101CD0004B0662E672E0CE0101960E949D07F30179
:101CE000248135818D819E812817390709F58081EE
:101CF000918169817A81009759F06115710509F028
:101D000099C1232B09F499C1FC01808190E00DC099
:101D10006115710509F491C1232B09F48EC1FB01F2
:101D2000808190E091958195910911E0892B09F0CE
:101D300010E0CE0101960E944B06112309F4D9C28E
:101D4000810167EF73E0C8010E949D070A5F1F4F82
:101D50000A151B05B1F7C552D84F1882CB5DD74085
:101D60006AE573E0CE0101960E949D076DE573E080
:101D7000C5010E949D07CC24C394EE24E3948E01F8
:101D80000F5F1F4F9501AE014552584FB101CC5125
:101D9000D84F88819981C45ED7400E94FA07C50157
:101DA0000E944B06C8010E944B06C552D84F88813D
:101DB000CB5DD740813009F099C260E673E0C50180
:101DC0000E949D07B101C5010E94BD0663EE73E04C
:101DD0000E94A706BC01C8010E949407C8010E9486
:101DE0004B06C5010E944B06F301028513856DE584
:101DF00073E0C5010E949D07B501CC51D84F888181
:101E00009981C45ED7400E948505F10144815581C6
:101E10004D5F5F4F480F591F9801CC51D84F6881D3
:101E20007981C45ED740CE0101960E94AE07BE0103
:101E30006F5F7F4FCC51D84F88819981C45ED74066
:101E40000E940006CE0101960E944B06C5010E9429
:101E50004B0667E673E0C5010E949D07CC51D84F41
:101E600068817981C45ED740C5010E94BD0663EEDA
:101E700073E00E94A706BC01CE0101960E94940760
:101E8000CE0101960E944B06C5010E944B0666EEEC
:101E900072E0CE0101960E949D07BE016F5F7F4FE9
:101EA000CC51D84F88819981C45ED7400E94850566
:101EB00010E097FD16C06BE573E0C5010E949D0719
:101EC000B501CC51D84F88819981C45ED7400E941A
:101ED00085059095192F111F1127111FC5010E940B
:101EE0004B06CE0101960E944B06112309F4F9C15D
:101EF0008E01035F1C4F67EF73E0C8010E949D07CE
:101F00000A5F1F4FCE51D84F88819981C25ED7405A
:101F10008017910781F74E0194E2891A98EF990A88
:101F2000F40110826BE573E0CE0101960E949D07DB
:101F300066EE72E0CE01875C9B4F0E949D07C12C2C
:101F4000EE24E3948E010F5F1F4F9E01275C3B4FF1
:101F5000A401B501C1010E94FA07CE01875C9B4F25
:101F60000E944B06C8010E944B06F12CC452D84F68
:101F70008881CC5DD740F81608F074C0CE01875C2C
:101F80009B4F4C018C0167EF73E0C8010E949D07D5
:101F90000A5F1F4F60167106B1F7C753D84F1882FA
:101FA000C95CD74067EF73E0C2010E949D0767EFED
:101FB00073E0CE018D53984F0E949D07C12CE12CF8
:101FC00082019E012D53384FAE014753584FBE0139
:101FD000675C7B4FC501E6E0FE9E800D911D1124DC
:101FE0000E94FA07CE018D53984F0E944B06C20102
:101FF0000E944B06C753D84FE880C95CD740F0E336
:10200000FF9E6001112410E000E00E15C0F4C40131
:102010000E945E05F601E00FF11F81E090E08C0F59
:102020009D1FE80FF91F60830F5F1F4F96E0890E19
:10203000911CEBCF0E944C1978CE11E07ACE8E0124
:102040000B591A4F06501109C8010E944B06CE5178
:10205000D84FE881F981C25ED7400E171F0791F76C
:10206000F39484CF8E01075C1B4F67EF73E0C801C8
:102070000E949D070A5F1F4F06151705B1F74E0115
:10208000F3E28F1AF8EF9F0AF4011082F301228520
:1020900033852150310941E050E0C3010696CA5111
:1020A000D84F99838883C65ED740BC01C2010E9485
:1020B000AE07B201CA51D84F88819981C65ED74018
:1020C0000E940006C2010E944B0667EF73E0C20146
:1020D0000E949D0767EF73E0CE018D53984F0E94D9
:1020E0009D07C12CE12C82019E012D53384FA40184
:1020F000BE01675C7B4FCA51D84F88819981C65E0B
:10210000D7400E94FA07CE018D53984F0E944B068C
:10211000C2010E944B06F12CF4018081F81608F0F0
:10212000BAC069E374E06C0F7D1FF6E0FF9E600D9E
:10213000711D1124CE018153984F0E94940761E7CD
:1021400073E0C2010E949D07B201CE018153984FF6
:102150000E9485058C01C2010E944B06012B09F0EB
:1021600044C0CD52D84F28813981C35DD74043E068
:1021700050E0BE016153784FC2010E94AE07B20128
:10218000CE018153984F0E940006C2010E944B0667
:1021900065E773E0CE018D53984F0E949D07BE0105
:1021A0006153784FCE018D53984F0E94BD0663EE68
:1021B00073E00E94A706BC01C2010E949407C201FD
:1021C0000E944B06CE018D53984F0E944B06CE01C4
:1021D0008153984F0E945E050E94AD02CE0181534B
:1021E000984F0E944B06F39497CFD12C0E2D10E000
:1021F000C452D84F8881CC5DD740D81608F049C06A
:10220000E1E0F0E0EC0FFD1F20E32D9DE00DF11D5E
:102210001124E00FF11FC0806C2DCE018D53984F1B
:102220000E9427076DE773E0CE018753984F0E9405
:102230009D07BE016D53784FCE018753984F0E9482
:10224000BD066CE873E00E94A706BE016153784F9B
:102250000E94BD0663EE73E00E94A706BC01C201A6
:102260000E949407C2010E944B06CE018753984FEB
:102270000E944B06CE018D53984F0E944B06CE0113
:102280008153984F0E945E058C2D0E940102D394C9
:10229000AFCFE394A3CF830106501109C8010E9478
:1022A0004B06CE51D84F88819981C25ED74008171E
:1022B000190791F78E01075C1B4F06501109C801E1
:1022C0000E944B060A151B05C1F78E01035F1C4FC8
:1022D00006501109C8010E944B0602151305C1F7EB
:1022E00077CC82E090E00E94B60BEFCF83E090E0E5
:1022F000FACF61E973E0CE0101960E949D07CE01FD
:102300000196C8CC8130C1F461EA73E0C3010E9438
:102310008905882329F00E94820B0E94650B58CC06
:1023200062EB73E0C3010E9489058111F6CF8FEF44
:102330009FEF0E94B60B4CCC90E080E0FACFE6E035
:102340004E1A5108C2010E944B06C052D84F8881D4
:102350009981C05ED7404816590689F7CE018B5245
:10236000984F0E944B06C851D84F0FB6F894DEBF65
:102370000FBECDBFDF91CF911F910F91FF90EF90D6
:10238000DF90CF90BF90AF909F908F907F906F9095
:102390005F904F903F902F900895622FCE018F5104
:1023A0009E4F0E9427076AED73E0C5010E949D07BA
:1023B000BE016F517E4FC5010E94BD066CE873E0FF
:1023C0000E94A70625E6822E25E0922E8C0E9D1EE9
:1023D000ECE08E0E911CB4010E94BD0662EE73E02B
:1023E0000E94A706BC01CE0101960E949407CE016F
:1023F00001960E944B06C5010E944B06CE018F51EB
:102400009E4F0E944B06B401CE018F519E4F0E94F9
:10241000940765EE73E0CE018F519E4F0E948905AF
:102420008111F7CB6EE173E0CE018F519E4F0E9478
:102430008905882309F423CC60E0ECCBBF92CF92CE
:10244000DF92EF92FF920F931F93CF93DF93CDB75D
:10245000DEB7A7970FB6F894DEBF0FBECDBF80E002
:102460000E949E057C0197FD71C06CEE73E0CE0169
:1024700001960E949D07CE0101960E944B060E9484
:10248000E0021BA21AA21DA21CA21FA21EA22AE0E9
:10249000AE014F5F5F4F0E941C16BE016F5F7F4F02
:1024A000CE0182960E94F106CE0182960E944B06D2
:1024B00066EF73E0CE0101960E949D07CE01019662
:1024C0000E944B0686E08E9D80018F9D100D112489
:1024D0000E56194FC8010E94C00367EF73E0C80190
:1024E0000E94F10680E00E94CF057C0180E00E94FE
:1024F0009E058C0197FD28C086E0B82EF7FC24C00D
:10250000E016F1060CF5B09EC001B19E900D1124AD
:102510009C012E56394F6901BE9CC001BF9C900D95
:102520001124B9018E56994F0E947D0767EF73E021
:10253000C6010E94F106802F0E94CF057C01802FEA
:102540000E949E058C01DACF0E943C03A7960FB62D
:10255000F894DEBF0FBECDBFDF91CF911F910F91D9
:10256000FF90EF90DF90CF90BF9008951F920F9251
:102570000FB60F9211242F933F938F939F93AF9396
:10258000BF938091410590914205A0914305B09180
:1025900044053091400523E0230F2D3758F501966F
:1025A000A11DB11D209340058093410590934205E4
:1025B000A0934305B093440580914505909146054D
:1025C000A0914705B09148050196A11DB11D8093CA
:1025D000450590934605A0934705B0934805BF91E4
:1025E000AF919F918F913F912F910F900FBE0F90C0
:1025F0001F90189526E8230F0296A11DB11DD2CF7A
:102600001F920F920FB60F9211240BB60F922F93B9
:102610003F934F935F936F937F938F939F93AF936A
:10262000BF93EF93FF9389E495E00E944204FF91EA
:10263000EF91BF91AF919F918F917F916F915F913A
:102640004F913F912F910F900BBE0F900FBE0F90A7
:102650001F9018951F920F920FB60F9211240BB670
:102660000F922F938F939F93EF93FF93E0915905D0
:10267000F0915A058081E0915F05F091600582FD3F
:102680001DC09081809162058F5F8F7320916305DB
:10269000821741F0E0916205F0E0E75BFA4F958F19
:1026A00080936205FF91EF919F918F912F910F90F1
:1026B0000BBE0F900FBE0F901F9018958081F2CF28
:1026C000CF93DF9310924C0510924B0588EE93E068
:1026D000A0E0B0E080934D0590934E05A0934F0588
:1026E000B093500586E492E090934A0580934905A3
:1026F00085EC90E0909356058093550584EC90E02E
:10270000909358058093570580EC90E090935A057C
:102710008093590581EC90E090935C0580935B0574
:1027200082EC90E090935E0580935D0586EC90E0EE
:102730009093600580935F05109262051092630587
:10274000109264051092650568EF73E08AEF97E0D8
:102750000E949D076EEF73E080E098E00E949D0765
:10276000C2E9D6E067EF73E0CE010E949D0726968E
:1027700027E0CA3FD207B1F70E94E002C2E7D6E0E5
:10278000EEE0F6E046EE55E0199211921192DA0170
:102790006D937D938D939D93AD019F01225B3F4F80
:1027A000D9011D921C92B6E0E232FB0769F7109244
:1027B000910610929006DF91CF910895CF93DF9309
:1027C000CDB7DEB768970FB6F894DEBF0FBECDBFAA
:1027D000789484B5826084BD84B5816084BD85B5FC
:1027E000826085BD85B5816085BD80916E00816008
:1027F00080936E00109281008091810082608093AE
:1028000081008091810081608093810080918000AF
:102810008160809380008091B10084608093B100DA
:102820008091B00081608093B000809191008260BF
:1028300080939100809191008160809391008091BC
:1028400090008160809390008091A10082608093CD
:10285000A1008091A10081608093A1008091A000DF
:1028600081608093A000809121018260809321018A
:1028700080912101816080932101809120018160FC
:102880008093200180917A00846080937A00809107
:102890007A00826080937A0080917A0081608093D0
:1028A0007A0080917A00806880937A001092C1004B
:1028B000E0915905F0915A0582E08083E091550539
:1028C000F09156051082E0915705F09158058FEC74
:1028D000808310926105E0915D05F0915E0586E0D0
:1028E0008083E0915B05F0915C058081806180834D
:1028F000E0915B05F0915C05808188608083E091C8
:102900005B05F0915C05808180688083E0915B05C8
:10291000F0915C0580818F7D808302E916E067EF8E
:1029200073E0C8010E94F1060A5F1F4F67E00A3F8B
:102930001607A9F763E074E0CE0101960E949D0797
:10294000CE0101960E944B060E94F20B02E112E0BA
:10295000D801FD908D016F2DCE0107960E942707AB
:102960006AE074E0CE010D960E949D07BE01695F8A
:102970007F4FCE010D960E94BD0663EE73E00E946C
:10298000A706BC01CE0101960E949407CE010196D4
:102990000E944B06CE010D960E944B06CE01079673
:1029A0000E944B0661E08F2D0E942F0261E08F2D67
:1029B0000E940102B2E002341B0751F642E65BE0DE
:1029C00064E670E080E090E00E94EC024BE35AE0A5
:1029D00068EE73E080E090E00E94EC020E94650BDC
:1029E00022242394312C89E495E00E942C047C015C
:1029F000892B29F00E94900C0E94D104F4CF0E94F0
:102A0000E0022B013C01EEE0F6E006EE15E0188F47
:102A10000F8B30E020E0CF0182599F4FDC011D92E7
:102A20001C92808191813296892BA9F1AF89B88D52
:102A30004D915D916D917C911397DC968D909D9059
:102A4000AD90BC90DF97D301C201841B950BA60B00
:102A5000B70B88159905AA05BB05E8F0480D591D67
:102A60006A1D7B1DAF89B88D4D935D936D937C93EB
:102A70001397C9018E58994FDC018C91882359F026
:102A800042AD53AD4115510539F5CF0184599F4FE2
:102A9000DC012D923C922F5F3F4FAF89B88D149689
:102AA000B88FAF8B2A30310509F0B5CF6801B6E990
:102AB000CB0ED11CF601808191818130910551F1BD
:102AC000029771F1BFEFEB1AFB0A0E5F1F4FEAE0AE
:102AD000EE16F10459F790CF5F01BEE4AB0EB11CC6
:102AE000D5018D919C9184179507ACF66F01BCE6DA
:102AF000CB0ED11CD6012D923C920196D5018D931F
:102B00009C93841795073CF282E090E0D6018D9368
:102B10009C93C1CFD8019896ED91FC911995D2CF95
:102B2000D8019896ED91FC9119958091900690911D
:102B30009106009739F2F80120A531A5232B11F257
:102B400011A610A6F701EE58F94F1082D6011D927A
:102B50001C92F701EE0FFF1FEE0FFF1FEA51FA4F15
:102B600014AE15AE16AE17AEF801E858FF4F11823D
:102B7000108201979093910680939006A3CFCF93F4
:102B8000DF93CAEFD7E02697CE010E944B0686E07E
:102B9000C239D807C1F780E098E00E944B068AEF5F
:102BA00097E0DF91CF910C944B061F93FC0199277E
:102BB0008827BC01E89411911032E9F3193010F024
:102BC0001E30C8F31B3251F01D3249F4689406C020
:102BD0000E940716610F711D811D911D11911053E7
:102BE0001A30B0F33EF490958095709561957F4FC3
:102BF0008F4F9F4F1F910895BB274A3031F499237F
:102C000022F4BDE2909581959F4F0C943F16592F69
:102C1000482F372F262F660F771F881F991F660FA3
:102C2000771F881F991F620F731F841F951F660FE0
:102C3000771F881F991F0895BB27FA01A62F6217D7
:102C4000710581059105330B30FB66F0AA27660FED
:102C5000771F881F991FAA1FA21710F0A21B639548
:102C60003850A9F7A05DAA3308F0A95DA19336F703
:102C7000B111B1931082CA010C945816BB27FB0105
:102C80005527AA27880F991FAA1FA41710F0A41B65
:102C900083955051B9F7A05DAA3308F0A95DA193BF
:102CA000009779F7B111B1931192CB010C9458169A
:102CB000DC01FC01672F71917723E1F7329704C0A3
:102CC0007C916D9370836291AE17BF07C8F308952E
:102CD000E89409C097FB3EF49095809570956195B6
:102CE0007F4F8F4F9F4F9923A9F0F92F96E9BB276C
:102CF0009395F695879577956795B795F111F8CFE8
:102D0000FAF4BB0F11F460FF1BC06F5F7F4F8F4F52
:102D10009F4F16C0882311F096E911C0772321F048
:102D20009EE8872F762F05C0662371F096E8862FE0
:102D300070E060E02AF09A95660F771F881FDAF737
:102D4000880F9695879597F9089557FD9058440FE9
:102D5000551F59F05F3F71F04795880F97FB991FFA
:102D600061F09F3F79F087950895121613061406B7
:102D7000551FF2CF4695F1DF08C016161706180644
:102D8000991FF1CF86957105610508940895E8941F
:102D9000BB2766277727CB0197F90895F999FECFCE
:102DA00092BD81BDF89A992780B50895262FF9998B
:102DB000FECF1FBA92BD81BD20BD0FB6F894FA9A1E
:102DC000F99A0FBE01960895A1E21A2EAA1BBB1B09
:102DD000FD010DC0AA1FBB1FEE1FFF1FA217B307E7
:102DE000E407F50720F0A21BB30BE40BF50B661FFD
:102DF000771F881F991F1A9469F7609570958095C1
:102E000090959B01AC01BD01CF010895EE0FFF1F0E
:102E1000881F8BBF0790F691E02D19940E94AD1684
:102E200088F09F5798F0B92F9927B751B0F0E1F08B
:102E3000660F771F881F991F1AF0BA95C9F714C03B
:102E4000B13091F00E94C716B1E008950C94C716F6
:102E5000672F782F8827B85F39F0B93FCCF3869574
:102E600077956795B395D9F73EF4909580957095D1
:102E700061957F4F8F4F9F4F08950F931F93CF936F
:102E8000DF938230910510F482E090E0E091080831
:102E9000F091090830E020E0B0E0A0E0309799F42C
:102EA0002115310509F44AC0281B390B243031059E
:102EB000D8F58A819B816115710589F1FB019383A6
:102EC0008283FE0111C04081518102811381481724
:102ED0005907E0F04817590799F4109761F01296D6
:102EE0000C93129713961C933296CF01DF91CF91DA
:102EF0001F910F9108950093080810930908F4CFCB
:102F00002115310551F04217530738F0A901DB01B3
:102F10009A01BD01DF01F801C1CFEF01F9CF909314
:102F2000090880930808CDCFFE01E20FF31F8193BB
:102F300091932250310939832883D7CF20910608F5
:102F400030910708232B41F42091020230910302B3
:102F50003093070820930608209100023091010267
:102F60002115310541F42DB73EB74091040250912F
:102F70000502241B350BE0910608F0910708E217C3
:102F8000F307A0F42E1B3F0B2817390778F0AC018C
:102F90004E5F5F4F2417350748F04E0F5F1F509369
:102FA000070840930608819391939FCFF0E0E0E0FB
:102FB0009CCFCF93DF930097E9F0FC013297138207
:102FC0001282A0910808B0910908ED0130E020E0DC
:102FD0001097A1F420813181820F931F2091060860
:102FE000309107082817390709F061C0F0930708E6
:102FF000E0930608DF91CF910895EA01CE17DF072D
:10300000E8F54A815B819E0141155105B1F7E9015F
:10301000FB83EA8349915991C40FD51FEC17FD0733
:1030200061F4808191810296840F951FE901998353
:103030008883828193819B838A83F0E0E0E012960B
:103040008D919C9113970097B9F52D913C91119713
:10305000CD010296820F931F209106083091070838
:103060002817390739F6309751F510920908109250
:103070000808B0930708A0930608BCCFD383C28387
:1030800040815181840F951FC817D90761F44E5FA5
:103090005F4F88819981480F591F518340838A81EE
:1030A0009B81938382832115310509F0B0CFF09382
:1030B0000908E09308089ECFFD01DC01C0CF138210
:1030C0001282D7CF4F925F926F927F928F929F9290
:1030D000AF92BF92CF92DF92EF92FF920F931F9326
:1030E000CF93DF938C01009799F4CB01DF91CF91BF
:1030F0001F910F91FF90EF90DF90CF90BF90AF9016
:103100009F908F907F906F905F904F900C943D17A1
:10311000FC01E60FF71F9C0122503109E217F3076B
:1031200008F4AEC0D901CD91DC911197C617D7072D
:1031300020F1C530D10578F0CE01049786179707A6
:1031400050F0C61BD70B2297C193D1936D937C93FC
:10315000CF010E94D917C801DF91CF911F910F9124
:10316000FF90EF90DF90CF90BF90AF909F908F90A7
:103170007F906F905F904F9008955B01AC1ABD0AED
:103180004C018C0E9D1EA0910808B0910908512C8D
:10319000412CF12CE12C109731F58091060890918B
:1031A00007088815990509F05CC04616570608F00F
:1031B00058C08091000290910102009741F48DB7B0
:1031C0009EB74091040250910502841B950BE817AD
:1031D000F90708F055C0F0930708E0930608F901D5
:1031E00071836083B8CF8D919C91119712966C90EA
:1031F000129713967C901397A815B90559F56C0191
:1032000042E0C40ED11CCA14DB0420F1AC014A19FF
:103210005B09DA011296159780F0628273825183FE
:103220004083D9016D937C93E114F10471F0D701CF
:103230001396FC93EE9312978ECF22968C0F9D1FC0
:10324000F90191838083F301EFCFF0930908E093B4
:10325000080881CF4816590608F42C017D01D301D6
:103260009ACFCB010E943D177C01009749F0AE0137
:10327000B8010E944319C8010E94D91787016BCF7A
:1032800010E000E068CFFB01DC0102C001900D926C
:1032900041505040D8F70895FB01DC018D91019019
:1032A00080190110D9F3990B0895FB01DC010190FD
:1032B0000D920020E1F70895FB0151915523A9F0EB
:1032C000BF01DC014D9145174111E1F759F4CD01E2
:1032D0000190002049F04D9140154111C9F3FB01C7
:1032E0004111EFCF81E090E00197089511E0CDE327
:1032F000D1E000E006C0802FFE010E940617219653
:10330000011DCE33D10780E00807A9F7F894FFCF5D
:1033100000000A0880003A3B3C3D3E3F40414243AA
:10332000444502030405060708090A0B0C0D16178D
:1033300018191A1B1C1D1E1F202122232425262795
:1033400028292A2B2C2D2E2F303132333435363785
:1033500038390000000064049303C903B1042C044D
:10336000D8031E0443757272656E743A2000202DD6
:10337000200052434D36345631003C003E0A005383
:10338000656E6420746F2053657269616C2066619C
:10339000696C202D206E6F7420656E6F75676820D4
:1033A000656D70747920736C6F740A004461746188
:1033B0003A20000A417665726167653A20000A4446
:1033C000656C74613A200034003C434845434B5FD0
:1033D000434F4E4E454354494F4E2C434F4E4E455E
:1033E000435445442C00496E76616C696420436FF8
:1033F0006D6D616E64205B005D0A005374617274D0
:103400007570210A00496E7075743A2000202D20D5
:10341000416E616C6F670A00202D204469676974F2
:10342000616C0A003E005345545F50494E004449C8
:10343000474954414C00496E76616C69642050697B
:103440006E204D6F6465004368616E67652073751B
:103450006363657373210A0044657374726F792125
:103460000A00426F6172643A20005D5D005B5B00A0
:1034700050696E733A2000416374696F6E733A202D
:1034800000444C590044656C61793A2000446967F6
:103490006974616C57726974653A2000202D3E2072
:1034A00000496E76616C696420426F61726420210C
:1034B00000434845434B5F434F4E4E454354494FAD
:1034C0004E004745545F414C4C5F535441544500B6
:1034D0000A2D2D2D2D2D2D2D2D2D2D2D2D2D2D2D3F
:1034E0002D2D2D2D2D2D2D2D0A004368616E676524
:1034F00020000A0A00414E414C4F470053656E645C
:103500002061743A20000900434C4F5345004F504E
:10351000454E0052656164790A004F757470757488
:043520003A2000004D
:00000001FF
