:100000000C943E010C946F010C946F010C946F01E1
:100010000C946F010C946F010C946F010C946F01A0
:100020000C946F010C946F010C946F010C946F0190
:100030000C946F010C946F010C946F010C946F0180
:100040000C946F010C946F010C946F010C946F0170
:100050000C946F010C946F010C946F010C94591265
:100060000C946F010C94CD120C94A3120C946F019C
:100070000C946F010C946F010C946F010C946F0140
:100080000C946F010C946F010C946F010C946F0130
:100090000C946F010C946F010C946F010C946F0120
:1000A0000C946F010C946F010C946F010C946F0110
:1000B0000C946F010C946F010C946F010C946F0100
:1000C0000C946F010C946F010C946F010C946F01F0
:1000D0000C946F010C946F010C946F010C946F01E0
:1000E0000C946F010C94CA010C9499010C942C048B
:1000F0000C94C9030C9464040C94D0010C94031365
:100100000C94B8010C94D8030C94AA010C9495019A
:100110000C94C6010C94CF010C949D010C94360AEA
:100120000C94D4010C948F010C94B4010C94C11163
:100130000C94AE010C94A4010C9462150C945D0B0C
:100140000C941E040C94A1010C9493030C94BC0118
:100150000C94B1040C94C20100002100240027007B
:100160002A002D00300033000101000004010701C6
:100170000A0100002200250028002B002E0031007B
:10018000340002010000050108010B0100002000FD
:100190002300260029002C002F003200000100005F
:1001A00003010601090105050505070508080808FA
:1001B000020202020A0A08080404040401010101FF
:1001C00001010101030303030303030304070707FA
:1001D0000C0C0C0C0C0C0C0C02020202060606069F
:1001E000060606060B0B0B0B0B0B0B0B010210206C
:1001F000200808102040102040800201020108045D
:1002000002010102040810204080804020100804F0
:100210000201800402018040201008040201080449
:10022000020101020408102040800102040810208D
:10023000408000000A0B02090C0D0E0807030401A0
:1002400000000000000000000000000000000000AE
:10025000000000000000000000000000000012117B
:10026000100000000000000000000000000000007E
:1002700000000000000000000313621511241FBEDF
:10028000CFEFD1E2DEBFCDBF00E00CBF28E0A0E1A0
:10029000B4E001C01D92A630B207E1F714E0A0E07F
:1002A000B2E0E6E5F2E300E00BBF02C007900D927A
:1002B000A031B107D9F711E0CDE3D1E000E006C0ED
:1002C00021970109802FFE010E94A916CC33D10786
:1002D00080E00807A9F70E9481130C9419190C9467
:1002E00000008150823108F05AC0E82FF0E08827E2
:1002F000E358FE4F8F4F0C94A9169D01A1018F0169
:1003000095019901CF01A401AA01AE01B401B80180
:10031000BC01C201C601CF01CA01D001D401809144
:1003200080008F77809380000895809180008F7D7A
:10033000F9CF80918000877FF5CF84B58F7784BD1A
:10034000089584B58F7DFBCF8091B0008F77809327
:10035000B00008958091B0008F7DF9CF809190001A
:100360008F77809390000895809190008F7DF9CFD2
:1003700080919000877FF5CF8091A0008F77809348
:10038000A00008958091A0008F7DF9CF8091A000FA
:10039000877FF5CF809120018F778093200108958A
:1003A000809120018F7DF9CF80912001877FF5CF4B
:1003B000CF93DF93282F30E0F901EE5CFD4F84915D
:1003C000F901E451FE4FD491F901EA55FE4FC49171
:1003D000CC23A1F081110E947101EC2FF0E0EE0F0F
:1003E000FF1FE457FE4FA591B491EC91ED2381E0FE
:1003F00090E009F480E0DF91CF91089580E090E0F3
:10040000FACF1F93CF93DF93282F30E0F901EE5CF2
:10041000FD4F8491F901E451FE4FD491F901EA5561
:10042000FE4FC491CC23A9F0162F81110E947101B7
:10043000EC2FF0E0EE0FFF1FEE58FE4FA591B491A8
:100440008FB7F894EC91111108C0D095DE23DC939E
:100450008FBFDF91CF911F910895DE2BF8CFCF93FF
:10046000DF9390E0FC01E451FE4F24918A559E4FAA
:10047000FC0184918823C9F090E0880F991FFC014A
:10048000E85AFE4FA591B491FC01EE58FE4FC5917C
:10049000D49161110DC09FB7F8948C91209582235F
:1004A0008C938881282328839FBFDF91CF91089563
:1004B000623051F49FB7F8943C91822F809583234A
:1004C0008C93E8812E2BEFCF8FB7F894EC912E2BE5
:1004D0002C938FBFEACF863308F0865320917B00A0
:1004E000982F9870277F922B90937B008770806461
:1004F00080937C0080917A00806480937A00809160
:100500007A0086FDFCCF8091780090917900089563
:100510003FB7F8948091410590914205A091430521
:10052000B091440526B5A89B05C02F3F19F0019650
:10053000A11DB11D3FBFBA2FA92F982F8827BC013D
:10054000CD01620F711D811D911D42E0660F771F65
:10055000881F991F4A95D1F708958F929F92AF9265
:10056000BF92CF92DF92EF92FF926B017C010E94CB
:1005700088024B015C01C114D104E104F104B9F01B
:100580000E948802681979098A099B09683E7340AC
:100590008105910580F321E0C21AD108E108F10834
:1005A00088EE880E83E0981EA11CB11CE4CFFF905A
:1005B000EF90DF90CF90BF90AF909F908F90089575
:1005C0002FB7F89460913D0570913E0580913F05ED
:1005D000909140052FBF0895CF93DF9320918C0613
:1005E00030918D062A30310564F4EAE0F6E0D0E07F
:1005F000C0E021913191232B51F02196CA30D105D1
:10060000C1F7CFEFDFEFCE01DF91CF910895FE016B
:10061000EE0FFF1FEE0FFF1FE25EF94F6083718345
:1006200082839383FE01EE0FFF1FE65FF94F518334
:100630004083FE01EE0FFF1FEA5BF94F118210822B
:1006400081E0FE01E259F94F80830E94E002FE0141
:10065000EE0FFF1FEE0FFF1FEE51FA4F6083718305
:100660008283938380918C0690918D06019690935E
:100670008D0680938C06C7CFCF93DF9380918C0635
:1006800090918D060A9764F4EAE0F6E0D0E0C0E0CD
:1006900081919191892B51F02196CA30D105C1F7F2
:1006A000CFEFDFEFCE01DF91CF910895FE01EE0F86
:1006B000FF1FEE0FFF1FE25EF94F84E690E0A0E01F
:1006C000B0E080839183A283B383FE01EE0FFF1F0E
:1006D000E65FF94F81EC91E191838083FE01EE0F9B
:1006E000FF1FEA5BF94F81E090E091838083FE0178
:1006F000E259F94F80830E94E002FE01EE0FFF1FD6
:10070000EE0FFF1FEE51FA4F608371838283938354
:1007100080918C0690918D06019690938D06809322
:100720008C06C0CF0895AF92BF92CF92DF92EF9226
:10073000FF920F931F93CF93DF936C017B018B018B
:10074000040F151FEB015E01AE18BF08C017D107DB
:1007500059F06991D601ED91FC910190F081E02D65
:10076000C6011995892B79F7C501DF91CF911F91AA
:100770000F91FF90EF90DF90CF90BF90AF900895D2
:10078000FC01448155816081718185E495E00C9480
:100790009303FC01538D448D252F30E0842F90E08E
:1007A000821B930B541710F0CF960895019708956C
:1007B000FC01918D828D981761F0A28DAE0FBF2F35
:1007C000B11D5D968C91928D9F5F9F73928F90E08B
:1007D00008958FEF9FEF08950F931F930E94E002FB
:1007E00060934D0570934E0580934F05909350058F
:1007F00085E495E00E94D80397FF1DC00E94E002A7
:1008000000914D0510914E0520914F0530915005F6
:10081000601B710B820B930B0091490510914A05E7
:1008200020914B0530914C056017710782079307A3
:10083000F8F28FEF9FEF1F910F910895FC01918DBA
:10084000828D981731F0828DE80FF11D858D90E033
:1008500008958FEF9FEF0895FC01918D228D892FD0
:1008600090E0805C9F4F821B91098F7399270895B8
:1008700085E495E00E942C0421E0892B09F420E016
:10088000822F0895FC01A48DA80FB92FB11DA35A82
:10089000BF4F2C91848D90E001968F739927848FA0
:1008A000A689B7892C93A089B1898C9183708064C3
:1008B0008C93938D848D981306C00288F389E02D64
:1008C00080818F7D80830895EF92FF920F931F9315
:1008D000CF93DF93EC0181E0888F9B8D8C8D9813F3
:1008E0001AC0E889F989808185FF15C09FB7F894FF
:1008F000EE89FF896083E889F9898081837080644B
:1009000080839FBF81E090E0DF91CF911F910F9195
:10091000FF90EF900895F62E0B8D10E00F5F1F4FA4
:100920000F731127E02E8C8D8E110CC00FB607FCB3
:10093000FACFE889F989808185FFF5CFCE010E9441
:100940004204F1CFEB8DEC0FFD2FF11DE35AFF4F69
:10095000F0829FB7F8940B8FEA89FB8980818062CF
:10096000CFCFCF93DF93EC01888D8823B9F0AA898C
:10097000BB89E889F9898C9185FD03C0808186FD5A
:100980000DC00FB607FCF7CF8C9185FFF2CF8081A9
:1009900085FFEDCFCE010E944204E9CFDF91CF91D8
:1009A000089580E090E0892B29F00E94380481119D
:1009B0000E94000080E090E0892B49F080E090E008
:1009C000892B29F00E94000081110E94000080E024
:1009D00090E0892B49F080E090E0892B29F00E947B
:1009E000000081110E94000080E090E0892B49F016
:1009F00080E090E0892B29F00E94000081110C9486
:100A0000000008950F931F93CF93DF93282F88E161
:100A1000289FE001112442E050E060E070E0CB014B
:100A2000A0E030E0FA01EE0FFF1FEC0FFD1FE45EC7
:100A3000FB4F0190F081E02D3097D1F5AF5F4F5F14
:100A40005F4F4C30510571F76115710581059105B6
:100A500051F148E1429F8001439F100D1124045E33
:100A60001B4F2AE030E02A1B3109032E000C440BF7
:100A7000550B0E948716CA01B9010E940B160E94ED
:100A8000B116F8017183608382E090E0FC01EE0F03
:100A9000FF1FEC0FFD1FE45EFB4F118210820196D9
:100AA0008C30910599F7DF91CF911F910F910895A7
:100AB0006E0F7F1F811D911DC2CF0895FC018081A3
:100AC0009181009711F00C94781560E070E0CB01F3
:100AD0000895CF93DF93FC0124813581421753079A
:100AE00088F4C081D181FB0160817181CE01840FC6
:100AF000951F0E94FF18009729F08C1B9D0BDF911A
:100B0000CF9108958FEF9FEFFACF50E040E00C9423
:100B10006905FC0124813581232B39F421E0FB0197
:100B20008081882349F020E007C0808191810E9464
:100B3000EF1821E0892BB9F7822F0895CF92DF9229
:100B4000EF92FF920F931F93CF93DF93F82ED0E095
:100B5000C0E0C82ED12C86E0E82E8C2F8F0D8C3370
:100B6000D8F486010C0F1D1FE09EC001E19E900D80
:100B7000112464EF73E08257994F0E9489052196F2
:100B80008111EBCFC801DF91CF911F910F91FF90A1
:100B9000EF90DF90CF9008950FEF1FEFF3CFCF923C
:100BA000DF92EF92FF920F931F93CF93DF93F82E74
:100BB000D0E0C0E0C82ED12C86E0E82E8C2F8F0D1F
:100BC0008C33D8F486010C0F1D1FE09EC001E19EFE
:100BD000900D112464EF73E08257994F0E948905AC
:100BE0002196882359F3C801DF91CF911F910F916E
:100BF000FF90EF90DF90CF9008950FEF1FEFF3CFAE
:100C00000F931F93CF93DF938C01EB01FC01808145
:100C100091810097E1F06881798161157105A9F0F2
:100C2000428153812C813D814217530770F00E940D
:100C3000F8188C819D81F801958384831D821C8224
:100C4000DF91CF911F910F9108950E947C178881A9
:100C50009981F801918380838A819B819383828328
:100C60008C819D8195838483198218821B821A82CC
:100C7000E5CFCF93DF93EC0188819981009711F044
:100C80000E947C17198218821D821C821B821A8284
:100C9000DF91CF910895FC0180819181009711F03F
:100CA0000C947C1708950F931F93CF93DF93EC015F
:100CB00088819981009759F02A813B81261737074F
:100CC00030F081E0DF91CF911F910F9108958B015A
:100CD0006F5F7F4F0E940518009759F099838883B2
:100CE0001B830A832C813D81232B59F7FC01108241
:100CF000E8CF80E0E7CFEF92FF920F931F93CF935F
:100D0000DF936115710541F480E0DF91CF911F9170
:100D10000F91FF90EF90089541155105B1F07B01BF
:100D2000EC010C811D81040F151FB8010E945306B0
:100D3000882351F3288139818C819D81B701820FED
:100D4000931F0E94F8181D830C8381E0DECFCF93A0
:100D5000DF93EC01FB0101900020E9F73197AF012F
:100D6000461B570B0E947B06811103C0CE010E94D7
:100D70003906CE01DF91CF910895CF93DF93EC0137
:100D8000FB0144815581608171810E947B06811144
:100D900003C0CE010E943906CE01DF91CF910895A4
:100DA000EF92FF920F931F93CF93DF93EC017B01A0
:100DB0008A01BA010E94530681110BC0CE010E9424
:100DC0003906CE01DF91CF911F910F91FF90EF90E7
:100DD00008951D830C83B701888199810E94F818BA
:100DE000F0CFFB0101900020E9F73197AF01461BDE
:100DF000570B0C94D0060F931F93CF93DF9300D023
:100E000000D000D0CDB7DEB78C01862FF80111825B
:100E1000108213821282158214824AE0BE016F5F33
:100E20007F4F90E00E94E115BE016F5F7F4FC801C8
:100E30000E94F10629960FB6F894DEBF0FBECDBF13
:100E4000DF91CF911F910F9108950F931F93CF932F
:100E5000DF93CDB7DEB761970FB6F894DEBF0FBE54
:100E6000CDBF8C01CB01F801118210821382128256
:100E7000158214824AE0BE016F5F7F4F0E94E11528
:100E8000BE016F5F7F4FC8010E94F10661960FB6E9
:100E9000F894DEBF0FBECDBFDF91CF911F910F91B0
:100EA00008950F931F93CF93DF93CDB7DEB762976B
:100EB0000FB6F894DEBF0FBECDBF8C01CB01F80199
:100EC0001182108213821282158214824AE0BE01BE
:100ED0006F5F7F4F0E949F15BE016F5F7F4FC801FC
:100EE0000E94F10662960FB6F894DEBF0FBECDBF2A
:100EF000DF91CF911F910F910895CF93DF93EC0174
:100F0000FB018617970749F06081718161157105B2
:100F100041F0448155810E94D006CE01DF91CF91EE
:100F200008950E943906F9CFFC01118210821382C4
:100F30001282158214820C947D07FC0111821082AA
:100F40001382128215821482FB0101900020E9F7BE
:100F50003197AF01461B570B0C94D006AF92BF924E
:100F6000CF92DF92EF92FF920F931F93CF93DF9375
:100F70006C015B017A0189012417350720F48F2D5C
:100F80007901042F182F64EF73E0C6010E949D07BA
:100F9000D5011496CD91DC91EC16FD06E0F40C170A
:100FA0001D0708F4E801D501ED91FC911197EC0FB4
:100FB000FD1F108110826D917C916E0D7F1DC60109
:100FC00061157105A1F00E94F106F5018081918102
:100FD000C80FD91F1883C601DF91CF911F910F91C0
:100FE000FF90EF90DF90CF90BF90AF9008950E9458
:100FF0003906EBCF2F923F924F925F926F927F9282
:101000008F929F92AF92BF92CF92DF92EF92FF9218
:101010000F931F93CF93DF93CDB7DEB7AA970FB689
:10102000F894DEBF0FBECDBF6C012B015A01190130
:1010300064EF73E0C8010E948905811142C0B101CB
:10104000C6010E9485054C01B801C6010E948505B4
:101050003C01F12C861497040CF0F3C097FCF1C00E
:101060002FEF821A920A9701260D371DA401B601AF
:10107000CE0101960E94AE07D5018C91BE016F5F33
:101080007F4FF20126E0829FE00DF11D1124CF0178
:101090000E940006CE0101960E944B06D5018C915C
:1010A0008F5F8C93A401B101C6010E9469054C01B8
:1010B000A3014F5F5F4FB801C6010E9469053C0163
:1010C000C9CF1A82198264ED72E0CE0149960E945E
:1010D0009D07BE01675E7F4FC6010E9485058C019A
:1010E000CE0149960E944B06FF24F39417FD63C07E
:1010F0006BE573E0CE0149960E949D07BE01675ED5
:101100007F4FC6010E948505EE24E394019659F1B4
:101110006BE573E0CE014F960E949D07BE01615EB4
:101120007F4FC6010E948505EE24E3940817190736
:10113000B4F068E573E0CE0185960E949D07A80192
:10114000BE016B5D7F4FC6010E946905EE24E394EA
:10115000019609F0E12CCE0185960E944B06CE0146
:101160004F960E944B06CE0149960E944B06EE20F8
:1011700069F0EF2DF0E0EE0FFF1F21E030E02C0FC3
:101180003D1FE20FF31F11830083F3940F5F1F4F86
:1011900064ED72E0CE0149960E949D07A801BE0150
:1011A000675E7F4FC6010E9469058C01CE0149969A
:1011B0000E944B069BCFEF2DF0E0EE0FFF1F81E06A
:1011C00090E08C0F9D1FE80FF91FD60114968D91AA
:1011D0009C91918380838E010F5F1F4FE12C96E0DD
:1011E000992EFE1471F1E11022C02B813C814981BE
:1011F0005A81B601CE0149960E94AE07F501808161
:10120000BE01675E7F4F9201899D200D311D112423
:10121000C9010E940006CE0149960E944B06D501E5
:101220008C918F5F8C93E3940E5F1F4FDACFD801C0
:1012300012962D913C9113974D915C914F5F5F4FAA
:10124000D8CFAA960FB6F894DEBF0FBECDBFDF9100
:10125000CF911F910F91FF90EF90DF90CF90BF90B3
:10126000AF909F908F907F906F905F904F903F9046
:101270002F900895DF92EF92FF920F931F93CF93D9
:10128000DF93CDB7DEB76E970FB6F894DEBF0FBE13
:10129000CDBFD62E082F10E098E1899FF0011124D0
:1012A000E45EFB4FE080F18064EF73E0CE01439693
:1012B0000E949D07F801EA5FFD4F1081D1107CC0AC
:1012C00086E08E9DB0018F9D700D11246A50784F7D
:1012D000CE0143960E947D07612FCE010D960E949C
:1012E000FB0662E672E0CE0107960E949D076AE661
:1012F00072E0CE0101960E949D07BE01695F7F4F9B
:10130000CE0101960E94BD0664ED72E00E94A70620
:10131000BE01635F7F4F0E94BD0664ED72E00E94D4
:10132000A706BE016D5E7F4F0E94BD066CE672E0AF
:101330000E94A706BC01CE0149960E949407CE01E7
:1013400001960E944B06CE0107960E944B06CE01E5
:101350000D960E944B0680E00E94CF0597FD5DC070
:1013600046E0489F9001499F300D1124BE01675E01
:101370007F4FC9018257994F0E947D0780918C064B
:1013800090918D06039714F40E943C03CE01499678
:101390000E944B06CE0143960E944B066E960FB6F6
:1013A000F894DEBF0FBECDBFDF91CF911F910F919B
:1013B000FF90EF90DF90089564E572E0CE01019612
:1013C0000E949D07CE0101960E944B06812F0E942C
:1013D0006B02BC01CE0101960E945107CE0101961D
:1013E0000E944B066EE572E0CE0101960E949D07B9
:1013F000CE0101960E944B06B701CE0101960E94D4
:101400002507BE016F5F7F4FCE0143960E94000605
:10141000CE0101960E944B065FCF6FE672E0CE01CF
:1014200001960E949D07CE0101960E944B066CE931
:1014300072E0CE0101960E949D07BE01675E7F4F5C
:10144000CE0101960E94BD0660EE73E00E94A706E1
:10145000BC01CE0107960E949407CE0107960E9418
:101460004B06CE0101960E944B0690CF9F92AF9201
:10147000BF92CF92DF92EF92FF920F931F93CF9381
:10148000DF93CDB7DEB762970FB6F894DEBF0FBE1D
:10149000CDBF80E1A82E84E0B82E0CE114E0F12C41
:1014A000E12C9E2CF50181915F01813009F077C01C
:1014B0008E2D0E940205F701EA5FFD4F80810E9498
:1014C0006B026C0164E572E0CE0101960E949D07FB
:1014D000CE0101960E944B06B601CE0101960E94F4
:1014E0005107CE0101960E944B0663EA72E0CE01DD
:1014F00001960E949D07CE0101960E944B06F801BD
:1015000060817181CE0101960E942507CE0101966E
:101510000E944B06F801C280D38080819181C81659
:10152000D90609F458C0C81AD90A6EEA72E0CE0189
:1015300001960E949D07CE0101960E944B06B601BE
:10154000CE0101960E942507BE016F5F7F4FCE013D
:1015500007960E94940760EE73E0CE0107960E9402
:10156000A706BC01CE010D960E949407CE010D96F0
:101570000E944B06CE0107960E944B06CE010196B3
:101580000E944B06F9E0CF16D10448F0F8018081A3
:1015900091819383828361E0892D0E943A09FFEF54
:1015A000EF1AFF0A085E1F4F8CE0E816F10409F0FD
:1015B00078CF62960FB6F894DEBF0FBECDBFDF9135
:1015C000CF911F910F91FF90EF90DF90CF90BF9040
:1015D000AF909F900895D12CC12CA7CF7F928F926E
:1015E0009F92AF92BF92CF92DF92EF92FF920F93B2
:1015F0001F93CF93DF93782E36E0C32E32E0D32EA5
:1016000040E1A42E44E0B42ECCE1D4E010E0F60199
:1016100001916F01F50181915F01811125C0802F3A
:101620000E94D801288139818217930759F0802FB1
:101630000E94D80199838883772021F060E0812F70
:101640000E943A091F5F68961C3009F7DF91CF911D
:101650001F910F91FF90EF90DF90CF90BF90AF90D0
:101660009F908F907F900895813061F722E0822EC5
:10167000912C80E07401EE0CFF1CEC0EFD1EF701B6
:1016800020813181232B39F4802F0E946B02F701D6
:101690009183808381E0FFEF8F1A9F0A9CE0891677
:1016A000910441F78111CECF812F0E940205802F36
:1016B0000E946B029D838C83C5CF81E00C94EE0A5F
:1016C0000F931F93CF9380E00E94EE0A00E114E095
:1016D000C0E0F80181918F0160E0813021F48C2F0E
:1016E0000E94020561E08C2F0E943A09CF5FCC3046
:1016F00081F7CF911F910F910895CF93DF93CDB7CD
:10170000DEB72C970FB6F894DEBF0FBECDBF67EBE8
:1017100072E0CE0107960E949D0769EB72E0CE0150
:1017200001960E949D07BE01695F7F4FCE01019621
:101730000E94BD066CE672E00E94A7060E94C003EC
:10174000CE0101960E944B06CE0107960E944B06E1
:101750002C960FB6F894DEBF0FBECDBFDF91CF91B0
:101760000895CF93DF9300D000D0CDB7DEB766EDFC
:1017700072E0CE0101960E949D07CE0101960E9463
:101780004B060E947D0B26960FB6F894DEBF0FBE67
:10179000CDBFDF91CF910895AF92BF92CF92DF92EC
:1017A000EF92FF921F93CF93DF93CDB7DEB762978F
:1017B0000FB6F894DEBF0FBECDBF68EE72E0CE016B
:1017C00001960E949D07CE0101960E944B0686E07D
:1017D000A82E82E0B82E90E1C92E94E0D92EF12CEB
:1017E000E12CC7010E947116F50111915F01813052
:1017F00009F048C0F601808360E0812F0E942F022B
:10180000612FCE0107960E94FB0662EF72E0CE01C7
:1018100001960E949D07BE01695F7F4FCE01019630
:101820000E94BD066AEF72E00E94A706BC01CE01CD
:101830000D960E949407CE010D960E944B06CE0194
:1018400001960E944B06CE0107960E944B06FFEFC1
:10185000EF1AFF0A8FEFC81AD80AECE0EE16F1046F
:1018600009F0BFCF62960FB6F894DEBF0FBECDBFB2
:10187000DF91CF911F91FF90EF90DF90CF90BF90BD
:10188000AF90089581111BC0F601108262E0812F94
:101890000E942F02612FCE0107960E94FB0662EF85
:1018A00072E0CE0101960E949D07BE01695F7F4FE5
:1018B000CE0101960E94BD0665E073E0B5CF60E001
:1018C000C7010E94791668EC70E080E090E00E9409
:1018D000AD02DACF2F923F924F925F926F927F923A
:1018E0008F929F92AF92BF92CF92DF92EF92FF9230
:1018F0000F931F93CF93DF93CDB7DEB7C15CDD406D
:101900000FB6F894DEBF0FBECDBF64EF73E0CE011B
:101910008F54924F0E949D070E94EC0397FD10C0C8
:101920008A30910569F089831A8241E050E0BE0156
:101930006F5F7F4FCE018F54924F0E947B06ECCF9A
:101940008E010F59164F1E0127E4221A24EF320A86
:10195000C454D24F19830883CC5BDD4064EF73E03D
:10196000C8010E949D070A5F1F4F02151305B1F7BA
:10197000C554D24F1882CB5BDD4061E173E0CE01EC
:1019800001960E949D076AE672E0CE01875A9D4F3C
:101990000E949D07E12C8E010F5F1F4F9E01275A69
:1019A0003D4FAE014554524FBE016F59764FCE01A7
:1019B0008F54924F0E94FA07CE01875A9D4F0E9482
:1019C0004B06C8010E944B06C554D24F8881CB5BA1
:1019D000DD4081111DC0BE016F54724FCE01875A88
:1019E0009D4F0E94940760EE73E0CE01875A9D4F91
:1019F0000E94A706BC01C8010E949407C8010E946A
:101A00004B06CE01875A9D4F0E944B060E94B10B98
:101A1000F12CCE018F59964FC054D24F99838883B1
:101A2000C05CDD404E0197EF891A98EF990A2401B6
:101A3000E6E04E0E511CC554D24F8881CB5BDD4091
:101A4000F81608F01FC441E6642E49E0742E6C0EAF
:101A50007D1EF6E0FF9E600C711C11246CE972E0A3
:101A6000CE01875A9D4F0E949D07B301CE01875A30
:101A70009D4F0E94BD0660EE73E00E94A706BC0168
:101A8000CE0101960E949407CE0101960E944B065A
:101A9000CE01875A9D4F0E944B068E01075F184F5B
:101AA000680164EF73E0C8010E949D070A5F1F4F41
:101AB000C054D24F88819981C05CDD408017910766
:101AC00081F7C654D24F1882CA5BDD4064EF73E0E1
:101AD000CE0101960E949D075E0197EAA91A9DEF2B
:101AE000B90A64ED72E0C5010E949D07E12C8E01E8
:101AF0000F5F1F4F9501AE014654524FB401C30111
:101B00000E94FA07C5010E944B06C8010E944B06BD
:101B1000C654D24F8881CA5BDD40833009F079C05A
:101B200063E173E0C4010E9489058823B9F0C20112
:101B30000E945E05E6E0F2E010E000E0A1912A2FAD
:101B400030E050E040E0261737074807590709F40E
:101B5000C7C30F5F1F4F0C30110581F76DEB73E0AA
:101B6000CE0101960E949D07CE0101960E944B0670
:101B70008E010F59164F06501109C8010E944B06DD
:101B800008151905C1F7F39456CF61E0C8010E940A
:101B9000791664E373E0CE0101960E949D07CE01A1
:101BA00001960E944B0664EF71E080E090E00E9495
:101BB000AD0265E473E0CE0101960E949D07CE015F
:101BC00001960E944B064CE154E02CE090E080E04E
:101BD000FC01EE0FFF1FE40FF51F1182108201962A
:101BE0008C309105A9F72150485E5F4F2111EECF4F
:101BF0000E94CC0B0AC063E273E0CE0101960E9402
:101C00009D07CE0101960E944B06C5010E944B061E
:101C1000A5CF823009F01EC36FE473E0C5010E94B6
:101C20009D07B401C5010E94BD0660EE73E00E94ED
:101C3000A706BC01CE0101960E949407CE01019631
:101C40000E944B06C5010E944B0662E672E0CE017F
:101C500001960E949D07F401248135818D819E812A
:101C60002817390709F58081918169817A81009768
:101C700059F06115710509F075C1232B09F475C17F
:101C8000FC01808190E00DC06115710509F46DC102
:101C9000232B09F46AC1FB01808190E09195819525
:101CA000910911E0892B09F010E0CE0101960E9404
:101CB0004B06112309F4C5C2CE0101966C0164EFF5
:101CC00073E0C6010E949D0796E0C90ED11CCA149C
:101CD000DB04A9F7C954D24F1882C75BDD4067E522
:101CE00073E0C6010E949D075E01EFE4AE1AEBEFC0
:101CF000BE0A6AE573E0C5010E949D07EE24E394E5
:101D000086019501AE014954524FBE016F5F7F4F6E
:101D1000C2010E94FA07C5010E944B06C6010E943B
:101D20004B06C954D24F8881C75BDD40813009F032
:101D300085C26DE573E0C5010E949D07BE016F5F1E
:101D40007F4FC5010E94BD0660EE73E00E94A706AA
:101D5000BC01C6010E949407C6010E944B06C50142
:101D60000E944B06F401028513856AE573E0C50104
:101D70000E949D07B501C2010E9485054D815E81CB
:101D80004D5F5F4F480F591F9801B201C6010E9475
:101D9000AE07B601C2010E940006C6010E944B06B2
:101DA000C5010E944B0664E673E0C5010E949D07D1
:101DB000B201C5010E94BD0660EE73E00E94A70655
:101DC000BC01C6010E949407C6010E944B06C501D2
:101DD0000E944B066BE573E0C6010E949D07B601A9
:101DE000C2010E94850510E097FD11C068E573E00F
:101DF000C5010E949D07B501C2010E94850590950D
:101E0000192F111F1127111FC5010E944B06CE016A
:101E1000875A9D4F0E944B06112309F40FC28E0171
:101E2000075A1D4F64EF73E0C8010E949D070A5FC7
:101E30001F4FA016B106B1F76E01F8E4CF1AF2EF0A
:101E4000DF0AF601108268E573E0C5010E949D0774
:101E50006BE573E0C1010E949D073E01F7EA6F1A2E
:101E6000FDEF7F0AE12C85019101A601B301CE01AE
:101E700001960E94FA07C1010E944B06C5010E940B
:101E80004B06B12CCE018F549B4FC254D24F998335
:101E90008883CE5BDD4080E3A82EC854D24F888172
:101EA000C85BDD40B81608F075C0FE01EF54FB4F6B
:101EB0003F018F0164EF73E0C8010E949D070A5F34
:101EC0001F4F80169106B1F7CB55D24F1882C55AD5
:101ED000DD4064EF73E0CE018756924F0E949D076C
:101EE00064ED72E0CE018156924F0E949D07E12C75
:101EF0008E010756124F9E012156324FAE014B55AF
:101F0000524FBE016F547B4F89E592E08C0F9D1FAD
:101F1000F6E0BF9E800D911D11240E94FA07CE01AC
:101F20008156924F0E944B06C8010E944B06CB552A
:101F3000D24FE880C55ADD40BA9C6001112410E000
:101F400000E00E15A0F4C3010E945E05F601E00F4B
:101F5000F11FE20DF31D60830F5F1F4F26E0620E3D
:101F6000711CEFCF0E94EF189CCE11E09ECE8E0127
:101F7000075F184F06501109C8010E944B06C25452
:101F8000D24F88819981CE5BDD400817190791F700
:101F9000B39483CF8E010F541B4F64EF73E0C801DD
:101FA0000E949D070A5F1F4F08151905B1F76E01C2
:101FB00097E4C91A92EFD90AF6011082F40122853A
:101FC00033852150310941E050E05401F6E0AF0E75
:101FD000B11CB501CE018756924F0E94AE07BE01DB
:101FE0006756724FC5010E940006CE018756924F78
:101FF0000E944B0664EF73E0CE018756924F0E9419
:102000009D0764ED72E0CE018156924F0E949D07BC
:10201000E12C8E010756124F9E012156324FA60128
:10202000BE016F547B4FC5010E94FA07CE01815655
:10203000924F0E944B06C8010E944B06B12C10E043
:1020400006E0F6018081B81608F0CAC061EB74E0C2
:102050006C0F7D1FB09E600D711D1124CE01855542
:10206000924F0E9494076EE673E0CE018756924F1E
:102070000E949D07BE016756724FCE018555924F53
:102080000E9485053C01CE018756924F0E944B0667
:10209000672809F04EC0C155D24F28813981CF5AE7
:1020A000DD4043E050E0BE016555724FCE018756DA
:1020B000924F0E94AE07BE016756724FCE01855502
:1020C000924F0E940006CE018756924F0E944B0607
:1020D00062E773E0CE018156924F0E949D07BE01D8
:1020E0006555724FCE018156924F0E94BD0660EE3B
:1020F00073E00E94A706BC01CE018756924F0E9452
:102100009407CE018756924F0E944B06CE0181560E
:10211000924F0E944B06CE018555924F0E945E055C
:102120000E94AD02CE018555924F0E944B06B3949A
:1021300088CFA12C612E712CC854D24F8881C85BE6
:10214000DD40A81608F04AC0F10120E32A9DE00D09
:10215000F11D1124E60DF71DE0806E2DCE01815694
:10216000924F0E94FB066AE773E0CE018B55924FB7
:102170000E949D07BE016156724FCE018B55924F52
:102180000E94BD0669E873E00E94A706BE0165557E
:10219000724F0E94BD0660EE73E00E94A706BC016C
:1021A000CE018756924F0E949407CE018756924FD8
:1021B0000E944B06CE018B55924F0E944B06CE01DA
:1021C0008156924F0E944B06CE018555924F0E9438
:1021D0005E058E2D0E940102A394AECF1F5FA2CF99
:1021E000640186E0C81AD108C6010E944B06C25499
:1021F000D24FE881F981CE5BDD40CE16DF0689F74C
:102200008E01075A1D4FF6E0CF1AD108C6010E9471
:102210004B06C016D106B9F76E0127EAC21A2DEF98
:10222000D20A8E010F5F1F4F86E0C81AD108C6017F
:102230000E944B060C151D05B9F790CC0E94B10BFE
:10224000EBCF6EE873E0CE0101960E949D07CE01B0
:102250000196DCCC813099F46EE973E0C4010E94F0
:102260008905882329F00E947D0B0E94600B76CCA3
:102270006FEA73E0C4010E9489058111F6CF0E94C4
:10228000B10B6CCC96E0291A3108C1010E944B06B3
:10229000C454D24FE881F981CC5BDD402E163F0655
:1022A00089F7CE018F54924F0E944B06CF53D24FE5
:1022B0000FB6F894DEBF0FBECDBFDF91CF911F9157
:1022C0000F91FF90EF90DF90CF90BF90AF909F90D5
:1022D0008F907F906F905F904F903F902F900895D8
:1022E0006A2FCE01875A9D4F0E94FB0667ED73E06F
:1022F000CE018F549B4F0E949D07BE01675A7D4FB0
:10230000CE018F549B4F0E94BD0669E873E00E9486
:10231000A706FCE0CF0ED11CB6010E94BD066FEDF2
:1023200073E00E94A706BC01CE0101960E949407AB
:10233000CE0101960E944B06CE018F549B4F0E9406
:102340004B06CE01875A9D4F0E944B06B601CE0127
:10235000875A9D4F0E94940762EE73E0CE01875A20
:102360009D4F0E948905811110CC6BE173E0CE0175
:10237000875A9D4F0E948905882309F43CCC60E070
:1023800005CCBF92CF92DF92EF92FF920F931F93F3
:10239000CF93DF93CDB7DEB7A7970FB6F894DEBF24
:1023A0000FBECDBF80E00E949E057C0197FD71C0ED
:1023B00069EE73E0CE0101960E949D07CE01019661
:1023C0000E944B060E94E0021BA21AA21DA21CA2A0
:1023D0001FA21EA22AE0AE014F5F5F4F0E94BF15F1
:1023E000BE016F5F7F4FCE0182960E94F106CE0143
:1023F00082960E944B0663EF73E0CE0101960E9425
:102400009D07CE0101960E944B0686E08E9D8001BD
:102410008F9D100D11240257194FC8010E94C0034F
:1024200064EF73E0C8010E94F10680E00E94CF05CE
:102430007C0180E00E949E058C0197FD28C086E00B
:10244000B82EF7FC24C0E016F1060CF5B09EC001D2
:10245000B19E900D11249C012257394F6901BE9CF9
:10246000C001BF9C900D1124B9018257994F0E9461
:102470007D0764EF73E0C6010E94F106802F0E9481
:10248000CF057C01802F0E949E058C01DACF0E942F
:102490003C03A7960FB6F894DEBF0FBECDBFDF9109
:1024A000CF911F910F91FF90EF90DF90CF90BF9051
:1024B00008951F920F920FB60F9211242F933F93FE
:1024C0008F939F93AF93BF9380913D0590913E056D
:1024D000A0913F05B091400530913C0523E0230FCA
:1024E0002D3758F50196A11DB11D20933C05809311
:1024F0003D0590933E05A0933F05B0934005809124
:10250000410590914205A0914305B0914405019683
:10251000A11DB11D8093410590934205A0934305F1
:10252000B0934405BF91AF919F918F913F912F91AF
:102530000F900FBE0F901F90189526E8230F02965C
:10254000A11DB11DD2CF1F920F920FB60F92112471
:102550000BB60F922F933F934F935F936F937F939D
:102560008F939F93AF93BF93EF93FF9385E495E091
:102570000E944204FF91EF91BF91AF919F918F9183
:102580007F916F915F914F913F912F910F900BBE73
:102590000F900FBE0F901F9018951F920F920FB6BD
:1025A0000F9211240BB60F922F938F939F93EF935B
:1025B000FF93E0915505F09156058081E0915B0510
:1025C000F0915C0582FD1DC0908180915E058F5F5A
:1025D0008F7320915F05821741F0E0915E05F0E076
:1025E000EB5BFA4F958F80935E05FF91EF919F9182
:1025F0008F912F910F900BBE0F900FBE0F901F90D9
:1026000018958081F2CFCF93DF93109248051092F6
:10261000470588EE93E0A0E0B0E0809349059093F1
:102620004A05A0934B05B0934C0586E492E0909345
:1026300046058093450585EC90E090935205809384
:10264000510584EC90E0909354058093530580EC01
:1026500090E0909356058093550581EC90E090931F
:1026600058058093570582EC90E090935A0580932B
:10267000590586EC90E090935C0580935B05109281
:102680005E0510925F05109260051092610565EF7E
:1026900073E086EF97E00E949D076BEF73E08CEF8D
:1026A00097E00E949D07CEE8D6E064EF73E0CE018C
:1026B0000E949D07269627E0C63FD207B1F70E94E9
:1026C000E002CEE6D6E0EAE0F6E042EE55E019920E
:1026D00011921192DA016D937D938D939D93AD01CB
:1026E0009F01225B3F4FD9011D921C92B6E0EE3153
:1026F000FB0769F710928D0610928C06DF91CF913F
:102700000895CF93DF93CDB7DEB768970FB6F894EF
:10271000DEBF0FBECDBF789484B5826084BD84B522
:10272000816084BD85B5826085BD85B5816085BDCC
:1027300080916E00816080936E0010928100809184
:10274000810082608093810080918100816080930C
:102750008100809180008160809380008091B10031
:1027600084608093B1008091B00081608093B0005C
:1027700080919100826080939100809191008160AE
:10278000809391008091900081608093900080916F
:10279000A10082608093A1008091A100816080935C
:1027A000A1008091A00081608093A0008091210110
:1027B00082608093210180912101816080932101B9
:1027C0008091200181608093200180917A00846053
:1027D00080937A0080917A00826080937A00809161
:1027E0007A00816080937A0080917A00806880937B
:1027F0007A001092C100E0915505F091560582E0F3
:102800008083E0915105F09152051082E0915305CB
:10281000F09154058FEC808310925D05E09159058D
:10282000F0915A0586E08083E0915705F0915805B4
:10283000808180618083E0915705F0915805808107
:1028400088608083E0915705F09158058081806809
:102850008083E0915705F091580580818F7D8083BA
:102860000EE816E064EF73E0C8010E94F1060A5F0B
:102870001F4F67E0063F1607A9F760E074E0CE013E
:1028800001960E949D07CE0101960E944B060E9470
:10289000CC0B02E112E0D801FD908D016F2DCE012D
:1028A00007960E94FB0667E074E0CE010D960E9439
:1028B0009D07BE01695F7F4FCE010D960E94BD0648
:1028C00060EE73E00E94A706BC01CE0101960E9453
:1028D0009407CE0101960E944B06CE010D960E94F0
:1028E0004B06CE0107960E944B0661E08F2D0E9499
:1028F0002F0261E08F2D0E940102B2E002341B071B
:1029000051F64DE55BE064E670E080E090E00E9407
:10291000EC0246E35AE068EE73E080E090E00E944B
:10292000EC020E94600B22242394312C85E495E074
:102930000E942C047C01892B29F00E946A0C0E94C1
:10294000D104F4CF0E94E0022B013C01EAE0F6E062
:1029500002EE15E0188F0F8B30E020E0CF01825996
:102960009F4FDC011D921C92808191813296892BB0
:10297000A9F1AF89B88D4D915D916D917C911397BF
:10298000DC968D909D90AD90BC90DF97D301C201F5
:10299000841B950BA60BB70B88159905AA05BB05DB
:1029A000E8F0480D591D6A1D7B1DAF89B88D4D9308
:1029B0005D936D937C931397C9018259994FDC0104
:1029C0008C91882359F042AD53AD4115510539F52D
:1029D000CF0184599F4FDC012D923C922F5F3F4FD6
:1029E000AF89B88D1496B88FAF8B2A30310509F0B6
:1029F000B5CF6801B6E9CB0ED11CF601808191817B
:102A00008130910551F1029771F1BFEFEB1AFB0A8A
:102A10000E5F1F4FEAE0EE16F10459F790CF5F0109
:102A2000BEE4AB0EB11CD5018D919C918417950726
:102A3000ACF66F01BCE6CB0ED11CD6012D923C92B8
:102A40000196D5018D939C93841795073CF282E003
:102A500090E0D6018D939C93C1CFD8019896ED91CB
:102A6000FC911995D2CFD8019896ED91FC911995CA
:102A700080918C0690918D06009739F2F80120A57F
:102A800031A5232B11F211A610A6F701E259F94F37
:102A90001082D6011D921C92F701EE0FFF1FEE0F60
:102AA000FF1FEE51FA4F14AE15AE16AE17AEF80179
:102AB000E858FF4F11821082019790938D06809302
:102AC0008C06A3CFCF93DF93C6EFD7E02697CE0136
:102AD0000E944B0686E0CE38D807C1F78CEF97E00E
:102AE0000E944B0686EF97E0DF91CF910C944B0646
:102AF0001F93FC0199278827BC01E894119110329B
:102B0000E9F3193010F01E30C8F31B3251F01D32BA
:102B100049F4689406C00E94AA15610F711D811DB9
:102B2000911D119110531A30B0F33EF49095809599
:102B3000709561957F4F8F4F9F4F1F910895BB27D1
:102B40004A3031F4992322F4BDE2909581959F4F4C
:102B50000C94E215592F482F372F262F660F771F19
:102B6000881F991F660F771F881F991F620F731F99
:102B7000841F951F660F771F881F991F0895BB2715
:102B8000FA01A62F6217710581059105330B30FB01
:102B900066F0AA27660F771F881F991FAA1FA21722
:102BA00010F0A21B63953850A9F7A05DAA3308F076
:102BB000A95DA19336F7B111B1931082CA010C94AB
:102BC000FB15BB27FB015527AA27880F991FAA1FB2
:102BD000A41710F0A41B83955051B9F7A05DAA3338
:102BE00008F0A95DA193009779F7B111B193119203
:102BF000CB010C94FB15DC01FC01672F719177234D
:102C0000E1F7329704C07C916D9370836291AE17A7
:102C1000BF07C8F30895E89409C097FB3EF4909568
:102C20008095709561957F4F8F4F9F4F9923A9F0A5
:102C3000F92F96E9BB279395F69587957795679534
:102C4000B795F111F8CFFAF4BB0F11F460FF1BC078
:102C50006F5F7F4F8F4F9F4F16C0882311F096E90B
:102C600011C0772321F09EE8872F762F05C06623B9
:102C700071F096E8862F70E060E02AF09A95660F72
:102C8000771F881FDAF7880F9695879597F908952B
:102C900057FD9058440F551F59F05F3F71F047950D
:102CA000880F97FB991F61F09F3F79F087950895F2
:102CB000121613061406551FF2CF4695F1DF08C011
:102CC000161617061806991FF1CF8695710561052E
:102CD00008940895E894BB2766277727CB0197F9D6
:102CE0000895F999FECF92BD81BDF89A992780B5D4
:102CF0000895262FF999FECF1FBA92BD81BD20BD40
:102D00000FB6F894FA9AF99A0FBE01960895A1E2C7
:102D10001A2EAA1BBB1BFD010DC0AA1FBB1FEE1F55
:102D2000FF1FA217B307E407F50720F0A21BB30BA0
:102D3000E40BF50B661F771F881F991F1A9469F71C
:102D400060957095809590959B01AC01BD01CF0178
:102D50000895EE0FFF1F881F8BBF0790F691E02D9F
:102D600019940E94501688F09F5798F0B92F992710
:102D7000B751B0F0E1F0660F771F881F991F1AF066
:102D8000BA95C9F714C0B13091F00E946A16B1E04B
:102D900008950C946A16672F782F8827B85F39F04A
:102DA000B93FCCF3869577956795B395D9F73EF4FF
:102DB00090958095709561957F4F8F4F9F4F0895A7
:102DC0000F931F93CF93DF938230910510F482E02D
:102DD00090E0E0910408F091050830E020E0B0E0D8
:102DE000A0E0309799F42115310509F44AC0281B59
:102DF000390B24303105D8F58A819B816115710525
:102E000089F1FB0193838283FE0111C040815181CE
:102E10000281138148175907E0F04817590799F4C0
:102E2000109761F012960C93129713961C9332969A
:102E3000CF01DF91CF911F910F9108950093040866
:102E400010930508F4CF2115310551F042175307AF
:102E500038F0A901DB019A01BD01DF01F801C1CF02
:102E6000EF01F9CF9093050880930408CDCFFE01C0
:102E7000E20FF31F81939193225031093983288304
:102E8000D7CF2091020830910308232B41F42091E1
:102E9000020230910302309303082093020820912C
:102EA0000002309101022115310541F42DB73EB7E2
:102EB0004091040250910502241B350BE091020859
:102EC000F0910308E217F307A0F42E1B3F0B28171D
:102ED000390778F0AC014E5F5F4F2417350748F093
:102EE0004E0F5F1F50930308409302088193919304
:102EF0009FCFF0E0E0E09CCFCF93DF930097E9F025
:102F0000FC01329713821282A0910408B091050847
:102F1000ED0130E020E01097A1F420813181820F93
:102F2000931F20910208309103082817390709F0F0
:102F300061C0F0930308E0930208DF91CF910895F8
:102F4000EA01CE17DF07E8F54A815B819E01411552
:102F50005105B1F7E901FB83EA8349915991C40F07
:102F6000D51FEC17FD0761F4808191810296840FD3
:102F7000951FE90199838883828193819B838A834A
:102F8000F0E0E0E012968D919C9113970097B9F5CF
:102F90002D913C911197CD010296820F931F2091A4
:102FA0000208309103082817390739F6309751F590
:102FB0001092050810920408B0930308A093020829
:102FC000BCCFD383C28340815181840F951FC81722
:102FD000D90761F44E5F5F4F88819981480F591F6F
:102FE000518340838A819B8193838283211531059C
:102FF00009F0B0CFF0930508E09304089ECFFD01DF
:10300000DC01C0CF13821282D7CF4F925F926F92B2
:103010007F928F929F92AF92BF92CF92DF92EF9268
:10302000FF920F931F93CF93DF938C01009799F436
:10303000CB01DF91CF911F910F91FF90EF90DF9027
:10304000CF90BF90AF909F908F907F906F905F9048
:103050004F900C94E016FC01E60FF71F9C012250E4
:103060003109E217F30708F4AEC0D901CD91DC9124
:103070001197C617D70720F1C530D10578F0CE01DA
:1030800004978617970750F0C61BD70B2297C1935A
:10309000D1936D937C93CF010E947C17C801DF917F
:1030A000CF911F910F91FF90EF90DF90CF90BF9045
:1030B000AF909F908F907F906F905F904F9008950A
:1030C0005B01AC1ABD0A4C018C0E9D1EA091040838
:1030D000B0910508512C412CF12CE12C109731F5C1
:1030E00080910208909103088815990509F05CC049
:1030F0004616570608F058C08091000290910102D0
:10310000009741F48DB79EB740910402509105029B
:10311000841B950BE817F90708F055C0F0930308D6
:10312000E0930208F90171836083B8CF8D919C917F
:10313000119712966C90129713967C901397A8157E
:10314000B90559F56C0142E0C40ED11CCA14DB0468
:1031500020F1AC014A195B09DA011296159780F04B
:103160006282738251834083D9016D937C93E11411
:10317000F10471F0D7011396FC93EE9312978ECF62
:1031800022968C0F9D1FF90191838083F301EFCF6D
:10319000F0930508E093040881CF4816590608F417
:1031A0002C017D01D3019ACFCB010E94E0167C0156
:1031B000009749F0AE01B8010E94E618C8010E94CC
:1031C0007C1787016BCF10E000E068CFFB01DC01CA
:1031D00002C001900D9241505040D8F70895FB0174
:1031E000DC018D91019080190110D9F3990B08959C
:1031F000FB01DC0101900D920020E1F70895FB0135
:1032000051915523A9F0BF01DC014D9145174111A2
:10321000E1F759F4CD010190002049F04D9140159E
:103220004111C9F3FB014111EFCF81E090E001971B
:10323000089511E0CDE3D1E000E006C0802FFE014B
:103240000E94A9162196011DCE33D10780E0080700
:06325000A9F7F894FFCF7E
:103256000000060880003A3B3C3D3E3F4041424369
:10326600444502030405060708090A0B0C0D161748
:1032760018191A1B1C1D1E1F202122232425262750
:1032860028292A2B2C2D2E2F303132333435363740
:1032960038390000000064049303C903B1042C0408
:1032A600D8031E0443757272656E743A2000202D91
:1032B600200052434D36345631003C003E0A00533E
:1032C600656E6420746F2053657269616C20666157
:1032D600696C202D206E6F7420656E6F756768208F
:1032E600656D70747920736C6F740A004461746143
:1032F6003A20000A417665726167653A20000A4401
:10330600656C74613A200034003C434845434B5F8A
:10331600434F4E4E454354494F4E2C434F4E4E4518
:10332600435445442C00496E76616C696420436FB2
:103336006D6D616E64202100537461727475702125
:103346000A00496E7075743A2000202D20416E6186
:103356006C6F670A00202D204469676974616C0AE6
:10336600003E005345545F50494E00444947495476
:10337600414C00496E76616C69642050696E204D3F
:103386006F6465004368616E676520737563636586
:103396007373210A0044657374726F79210A0042BF
:1033A6006F6172643A20005D5D005B5B0050696E80
:1033B600733A2000416374696F6E733A2000444C7F
:1033C600590044656C61793A200044696769746103
:1033D6006C57726974653A2000202D3E2000496EB4
:1033E60076616C696420426F6172642021004348F3
:1033F60045434B5F434F4E4E454354494F4E00475E
:1034060045545F414C4C5F5354415445000A2D2DA1
:103416002D2D2D2D2D2D2D2D2D2D2D2D2D2D2D2DD6
:103426002D2D2D2D2D0A004368616E676520000A3B
:103436000A00414E414C4F470053656E642061744B
:103446003A20000900434C4F5345004F50454E006B
:1034560052656164790A004F75747075743A20007C
:00000001FF
